{
  "contractName": "NftMarket",
  "abi": [
    {
      "inputs": [],
      "stateMutability": "nonpayable",
      "type": "constructor"
    },
    {
      "anonymous": false,
      "inputs": [
        {
          "indexed": true,
          "internalType": "address",
          "name": "owner",
          "type": "address"
        },
        {
          "indexed": true,
          "internalType": "address",
          "name": "approved",
          "type": "address"
        },
        {
          "indexed": true,
          "internalType": "uint256",
          "name": "tokenId",
          "type": "uint256"
        }
      ],
      "name": "Approval",
      "type": "event"
    },
    {
      "anonymous": false,
      "inputs": [
        {
          "indexed": true,
          "internalType": "address",
          "name": "owner",
          "type": "address"
        },
        {
          "indexed": true,
          "internalType": "address",
          "name": "operator",
          "type": "address"
        },
        {
          "indexed": false,
          "internalType": "bool",
          "name": "approved",
          "type": "bool"
        }
      ],
      "name": "ApprovalForAll",
      "type": "event"
    },
    {
      "anonymous": false,
      "inputs": [
        {
          "indexed": false,
          "internalType": "uint256",
          "name": "tokenId",
          "type": "uint256"
        },
        {
          "indexed": false,
          "internalType": "uint256",
          "name": "price",
          "type": "uint256"
        },
        {
          "indexed": false,
          "internalType": "address",
          "name": "creator",
          "type": "address"
        },
        {
          "indexed": false,
          "internalType": "bool",
          "name": "isListed",
          "type": "bool"
        }
      ],
      "name": "NftItemCreated",
      "type": "event"
    },
    {
      "anonymous": false,
      "inputs": [
        {
          "indexed": true,
          "internalType": "address",
          "name": "from",
          "type": "address"
        },
        {
          "indexed": true,
          "internalType": "address",
          "name": "to",
          "type": "address"
        },
        {
          "indexed": true,
          "internalType": "uint256",
          "name": "tokenId",
          "type": "uint256"
        }
      ],
      "name": "Transfer",
      "type": "event"
    },
    {
      "inputs": [
        {
          "internalType": "address",
          "name": "to",
          "type": "address"
        },
        {
          "internalType": "uint256",
          "name": "tokenId",
          "type": "uint256"
        }
      ],
      "name": "approve",
      "outputs": [],
      "stateMutability": "nonpayable",
      "type": "function"
    },
    {
      "inputs": [
        {
          "internalType": "address",
          "name": "owner",
          "type": "address"
        }
      ],
      "name": "balanceOf",
      "outputs": [
        {
          "internalType": "uint256",
          "name": "",
          "type": "uint256"
        }
      ],
      "stateMutability": "view",
      "type": "function"
    },
    {
      "inputs": [
        {
          "internalType": "uint256",
          "name": "tokenId",
          "type": "uint256"
        }
      ],
      "name": "getApproved",
      "outputs": [
        {
          "internalType": "address",
          "name": "",
          "type": "address"
        }
      ],
      "stateMutability": "view",
      "type": "function"
    },
    {
      "inputs": [
        {
          "internalType": "address",
          "name": "owner",
          "type": "address"
        },
        {
          "internalType": "address",
          "name": "operator",
          "type": "address"
        }
      ],
      "name": "isApprovedForAll",
      "outputs": [
        {
          "internalType": "bool",
          "name": "",
          "type": "bool"
        }
      ],
      "stateMutability": "view",
      "type": "function"
    },
    {
      "inputs": [],
      "name": "listingPrice",
      "outputs": [
        {
          "internalType": "uint256",
          "name": "",
          "type": "uint256"
        }
      ],
      "stateMutability": "view",
      "type": "function"
    },
    {
      "inputs": [],
      "name": "name",
      "outputs": [
        {
          "internalType": "string",
          "name": "",
          "type": "string"
        }
      ],
      "stateMutability": "view",
      "type": "function"
    },
    {
      "inputs": [
        {
          "internalType": "uint256",
          "name": "tokenId",
          "type": "uint256"
        }
      ],
      "name": "ownerOf",
      "outputs": [
        {
          "internalType": "address",
          "name": "",
          "type": "address"
        }
      ],
      "stateMutability": "view",
      "type": "function"
    },
    {
      "inputs": [
        {
          "internalType": "address",
          "name": "from",
          "type": "address"
        },
        {
          "internalType": "address",
          "name": "to",
          "type": "address"
        },
        {
          "internalType": "uint256",
          "name": "tokenId",
          "type": "uint256"
        }
      ],
      "name": "safeTransferFrom",
      "outputs": [],
      "stateMutability": "nonpayable",
      "type": "function"
    },
    {
      "inputs": [
        {
          "internalType": "address",
          "name": "from",
          "type": "address"
        },
        {
          "internalType": "address",
          "name": "to",
          "type": "address"
        },
        {
          "internalType": "uint256",
          "name": "tokenId",
          "type": "uint256"
        },
        {
          "internalType": "bytes",
          "name": "_data",
          "type": "bytes"
        }
      ],
      "name": "safeTransferFrom",
      "outputs": [],
      "stateMutability": "nonpayable",
      "type": "function"
    },
    {
      "inputs": [
        {
          "internalType": "address",
          "name": "operator",
          "type": "address"
        },
        {
          "internalType": "bool",
          "name": "approved",
          "type": "bool"
        }
      ],
      "name": "setApprovalForAll",
      "outputs": [],
      "stateMutability": "nonpayable",
      "type": "function"
    },
    {
      "inputs": [
        {
          "internalType": "bytes4",
          "name": "interfaceId",
          "type": "bytes4"
        }
      ],
      "name": "supportsInterface",
      "outputs": [
        {
          "internalType": "bool",
          "name": "",
          "type": "bool"
        }
      ],
      "stateMutability": "view",
      "type": "function"
    },
    {
      "inputs": [],
      "name": "symbol",
      "outputs": [
        {
          "internalType": "string",
          "name": "",
          "type": "string"
        }
      ],
      "stateMutability": "view",
      "type": "function"
    },
    {
      "inputs": [
        {
          "internalType": "uint256",
          "name": "tokenId",
          "type": "uint256"
        }
      ],
      "name": "tokenURI",
      "outputs": [
        {
          "internalType": "string",
          "name": "",
          "type": "string"
        }
      ],
      "stateMutability": "view",
      "type": "function"
    },
    {
      "inputs": [
        {
          "internalType": "address",
          "name": "from",
          "type": "address"
        },
        {
          "internalType": "address",
          "name": "to",
          "type": "address"
        },
        {
          "internalType": "uint256",
          "name": "tokenId",
          "type": "uint256"
        }
      ],
      "name": "transferFrom",
      "outputs": [],
      "stateMutability": "nonpayable",
      "type": "function"
    },
    {
      "inputs": [
        {
          "internalType": "uint256",
          "name": "tokenId",
          "type": "uint256"
        }
      ],
      "name": "getNftItem",
      "outputs": [
        {
          "components": [
            {
              "internalType": "uint256",
              "name": "tokenId",
              "type": "uint256"
            },
            {
              "internalType": "uint256",
              "name": "price",
              "type": "uint256"
            },
            {
              "internalType": "address",
              "name": "creator",
              "type": "address"
            },
            {
              "internalType": "bool",
              "name": "isListed",
              "type": "bool"
            }
          ],
          "internalType": "struct NftMarket.NftItem",
          "name": "",
          "type": "tuple"
        }
      ],
      "stateMutability": "view",
      "type": "function"
    },
    {
      "inputs": [],
      "name": "listedItemsCount",
      "outputs": [
        {
          "internalType": "uint256",
          "name": "",
          "type": "uint256"
        }
      ],
      "stateMutability": "view",
      "type": "function"
    },
    {
      "inputs": [
        {
          "internalType": "string",
          "name": "tokenURI",
          "type": "string"
        }
      ],
      "name": "tokenURIExists",
      "outputs": [
        {
          "internalType": "bool",
          "name": "",
          "type": "bool"
        }
      ],
      "stateMutability": "view",
      "type": "function"
    },
    {
      "inputs": [
        {
          "internalType": "uint256",
          "name": "tokenId",
          "type": "uint256"
        }
      ],
      "name": "buyNft",
      "outputs": [],
      "stateMutability": "payable",
      "type": "function"
    },
    {
      "inputs": [
        {
          "internalType": "string",
          "name": "tokenURI",
          "type": "string"
        },
        {
          "internalType": "uint256",
          "name": "price",
          "type": "uint256"
        }
      ],
      "name": "mintToken",
      "outputs": [
        {
          "internalType": "uint256",
          "name": "",
          "type": "uint256"
        }
      ],
      "stateMutability": "payable",
      "type": "function"
    }
  ],
  "bytecode": "0x60806040526658d15e176280006009553480156200001c57600080fd5b506040518060400160405280600c81526020017f4372656174757265734e465400000000000000000000000000000000000000008152506040518060400160405280600481526020017f434e4654000000000000000000000000000000000000000000000000000000008152508160009080519060200190620000a1929190620000c3565b508060019080519060200190620000ba929190620000c3565b505050620001d7565b828054620000d190620001a2565b90600052602060002090601f016020900481019282620000f5576000855562000141565b82601f106200011057805160ff191683800117855562000141565b8280016001018555821562000141579182015b828111156200014057825182559160200191906001019062000123565b5b50905062000150919062000154565b5090565b5b808211156200016f57600081600090555060010162000155565b5090565b7f4e487b7100000000000000000000000000000000000000000000000000000000600052602260045260246000fd5b60006002820490506001821680620001bb57607f821691505b602082108103620001d157620001d062000173565b5b50919050565b6136ea80620001e76000396000f3fe6080604052600436106101145760003560e01c80636f1a0af5116100a0578063c046372c11610064578063c046372c146103c6578063c78f19f9146103f6578063c87b56dd14610421578063ccb4918d1461045e578063e985e9c51461048957610114565b80636f1a0af5146102cf57806370a082311461030c57806395d89b4114610349578063a22cb46514610374578063b88d4fde1461039d57610114565b806323b872dd116100e757806323b872dd146101e7578063243adbdd1461021057806342842e0e1461022c57806343d32ae7146102555780636352211e1461029257610114565b806301ffc9a71461011957806306fdde0314610156578063081812fc14610181578063095ea7b3146101be575b600080fd5b34801561012557600080fd5b50610140600480360381019061013b9190612084565b6104c6565b60405161014d91906120cc565b60405180910390f35b34801561016257600080fd5b5061016b6105a8565b6040516101789190612180565b60405180910390f35b34801561018d57600080fd5b506101a860048036038101906101a391906121d8565b61063a565b6040516101b59190612246565b60405180910390f35b3480156101ca57600080fd5b506101e560048036038101906101e0919061228d565b6106bf565b005b3480156101f357600080fd5b5061020e600480360381019061020991906122cd565b6107d6565b005b61022a600480360381019061022591906121d8565b610836565b005b34801561023857600080fd5b50610253600480360381019061024e91906122cd565b61099e565b005b34801561026157600080fd5b5061027c60048036038101906102779190612455565b6109be565b60405161028991906120cc565b60405180910390f35b34801561029e57600080fd5b506102b960048036038101906102b491906121d8565b6109fa565b6040516102c69190612246565b60405180910390f35b3480156102db57600080fd5b506102f660048036038101906102f191906121d8565b610aab565b6040516103039190612520565b60405180910390f35b34801561031857600080fd5b50610333600480360381019061032e919061253b565b610b5d565b6040516103409190612577565b60405180910390f35b34801561035557600080fd5b5061035e610c14565b60405161036b9190612180565b60405180910390f35b34801561038057600080fd5b5061039b600480360381019061039691906125be565b610ca6565b005b3480156103a957600080fd5b506103c460048036038101906103bf919061269f565b610cbc565b005b6103e060048036038101906103db9190612722565b610d1e565b6040516103ed9190612577565b60405180910390f35b34801561040257600080fd5b5061040b610e2e565b6040516104189190612577565b60405180910390f35b34801561042d57600080fd5b50610448600480360381019061044391906121d8565b610e34565b6040516104559190612180565b60405180910390f35b34801561046a57600080fd5b50610473610f85565b6040516104809190612577565b60405180910390f35b34801561049557600080fd5b506104b060048036038101906104ab919061277e565b610f96565b6040516104bd91906120cc565b60405180910390f35b60007f80ac58cd000000000000000000000000000000000000000000000000000000007bffffffffffffffffffffffffffffffffffffffffffffffffffffffff1916827bffffffffffffffffffffffffffffffffffffffffffffffffffffffff1916148061059157507f5b5e139f000000000000000000000000000000000000000000000000000000007bffffffffffffffffffffffffffffffffffffffffffffffffffffffff1916827bffffffffffffffffffffffffffffffffffffffffffffffffffffffff1916145b806105a157506105a08261102a565b5b9050919050565b6060600080546105b7906127ed565b80601f01602080910402602001604051908101604052809291908181526020018280546105e3906127ed565b80156106305780601f1061060557610100808354040283529160200191610630565b820191906000526020600020905b81548152906001019060200180831161061357829003601f168201915b5050505050905090565b600061064582611094565b610684576040517f08c379a000000000000000000000000000000000000000000000000000000000815260040161067b90612890565b60405180910390fd5b6004600083815260200190815260200160002060009054906101000a900473ffffffffffffffffffffffffffffffffffffffff169050919050565b60006106ca826109fa565b90508073ffffffffffffffffffffffffffffffffffffffff168373ffffffffffffffffffffffffffffffffffffffff160361073a576040517f08c379a000000000000000000000000000000000000000000000000000000000815260040161073190612922565b60405180910390fd5b8073ffffffffffffffffffffffffffffffffffffffff16610759611100565b73ffffffffffffffffffffffffffffffffffffffff161480610788575061078781610782611100565b610f96565b5b6107c7576040517f08c379a00000000000000000000000000000000000000000000000000000000081526004016107be906129b4565b60405180910390fd5b6107d18383611108565b505050565b6107e76107e1611100565b826111c1565b610826576040517f08c379a000000000000000000000000000000000000000000000000000000000815260040161081d90612a46565b60405180910390fd5b61083183838361129f565b505050565b6000600b6000838152602001908152602001600020600101549050600061085c836109fa565b90508073ffffffffffffffffffffffffffffffffffffffff163373ffffffffffffffffffffffffffffffffffffffff16036108cc576040517f08c379a00000000000000000000000000000000000000000000000000000000081526004016108c390612ab2565b60405180910390fd5b81341461090e576040517f08c379a000000000000000000000000000000000000000000000000000000000815260040161090590612b1e565b60405180910390fd5b6000600b600085815260200190815260200160002060020160146101000a81548160ff0219169083151502179055506109476007611505565b61095281338561129f565b8073ffffffffffffffffffffffffffffffffffffffff166108fc349081150290604051600060405180830381858888f19350505050158015610998573d6000803e3d6000fd5b50505050565b6109b983838360405180602001604052806000815250610cbc565b505050565b600060011515600a836040516109d49190612b7a565b908152602001604051809103902060009054906101000a900460ff161515149050919050565b6000806002600084815260200190815260200160002060009054906101000a900473ffffffffffffffffffffffffffffffffffffffff169050600073ffffffffffffffffffffffffffffffffffffffff168173ffffffffffffffffffffffffffffffffffffffff1603610aa2576040517f08c379a0000000000000000000000000000000000000000000000000000000008152600401610a9990612c03565b60405180910390fd5b80915050919050565b610ab3611f35565b600b600083815260200190815260200160002060405180608001604052908160008201548152602001600182015481526020016002820160009054906101000a900473ffffffffffffffffffffffffffffffffffffffff1673ffffffffffffffffffffffffffffffffffffffff1673ffffffffffffffffffffffffffffffffffffffff1681526020016002820160149054906101000a900460ff1615151515815250509050919050565b60008073ffffffffffffffffffffffffffffffffffffffff168273ffffffffffffffffffffffffffffffffffffffff1603610bcd576040517f08c379a0000000000000000000000000000000000000000000000000000000008152600401610bc490612c95565b60405180910390fd5b600360008373ffffffffffffffffffffffffffffffffffffffff1673ffffffffffffffffffffffffffffffffffffffff168152602001908152602001600020549050919050565b606060018054610c23906127ed565b80601f0160208091040260200160405190810160405280929190818152602001828054610c4f906127ed565b8015610c9c5780601f10610c7157610100808354040283529160200191610c9c565b820191906000526020600020905b815481529060010190602001808311610c7f57829003601f168201915b5050505050905090565b610cb8610cb1611100565b8383611561565b5050565b610ccd610cc7611100565b836111c1565b610d0c576040517f08c379a0000000000000000000000000000000000000000000000000000000008152600401610d0390612a46565b60405180910390fd5b610d18848484846116cd565b50505050565b6000610d29836109be565b15610d69576040517f08c379a0000000000000000000000000000000000000000000000000000000008152600401610d6090612d01565b60405180910390fd5b6009543414610dad576040517f08c379a0000000000000000000000000000000000000000000000000000000008152600401610da490612d6d565b60405180910390fd5b610db76008611729565b610dc16007611729565b6000610dcd600861173f565b9050610dd9338261174d565b610de3818561176b565b610ded81846117df565b6001600a85604051610dff9190612b7a565b908152602001604051809103902060006101000a81548160ff0219169083151502179055508091505092915050565b60095481565b6060610e3f82611094565b610e7e576040517f08c379a0000000000000000000000000000000000000000000000000000000008152600401610e7590612dff565b60405180910390fd5b6000600660008481526020019081526020016000208054610e9e906127ed565b80601f0160208091040260200160405190810160405280929190818152602001828054610eca906127ed565b8015610f175780601f10610eec57610100808354040283529160200191610f17565b820191906000526020600020905b815481529060010190602001808311610efa57829003601f168201915b505050505090506000610f2861192f565b90506000815103610f3d578192505050610f80565b600082511115610f72578082604051602001610f5a929190612e1f565b60405160208183030381529060405292505050610f80565b610f7b84611946565b925050505b919050565b6000610f91600761173f565b905090565b6000600560008473ffffffffffffffffffffffffffffffffffffffff1673ffffffffffffffffffffffffffffffffffffffff16815260200190815260200160002060008373ffffffffffffffffffffffffffffffffffffffff1673ffffffffffffffffffffffffffffffffffffffff16815260200190815260200160002060009054906101000a900460ff16905092915050565b60007f01ffc9a7000000000000000000000000000000000000000000000000000000007bffffffffffffffffffffffffffffffffffffffffffffffffffffffff1916827bffffffffffffffffffffffffffffffffffffffffffffffffffffffff1916149050919050565b60008073ffffffffffffffffffffffffffffffffffffffff166002600084815260200190815260200160002060009054906101000a900473ffffffffffffffffffffffffffffffffffffffff1673ffffffffffffffffffffffffffffffffffffffff1614159050919050565b600033905090565b816004600083815260200190815260200160002060006101000a81548173ffffffffffffffffffffffffffffffffffffffff021916908373ffffffffffffffffffffffffffffffffffffffff160217905550808273ffffffffffffffffffffffffffffffffffffffff1661117b836109fa565b73ffffffffffffffffffffffffffffffffffffffff167f8c5be1e5ebec7d5bd14f71427d1e84f3dd0314c0f7b2291e5b200ac8c7c3b92560405160405180910390a45050565b60006111cc82611094565b61120b576040517f08c379a000000000000000000000000000000000000000000000000000000000815260040161120290612eb5565b60405180910390fd5b6000611216836109fa565b90508073ffffffffffffffffffffffffffffffffffffffff168473ffffffffffffffffffffffffffffffffffffffff16148061128557508373ffffffffffffffffffffffffffffffffffffffff1661126d8461063a565b73ffffffffffffffffffffffffffffffffffffffff16145b8061129657506112958185610f96565b5b91505092915050565b8273ffffffffffffffffffffffffffffffffffffffff166112bf826109fa565b73ffffffffffffffffffffffffffffffffffffffff1614611315576040517f08c379a000000000000000000000000000000000000000000000000000000000815260040161130c90612f47565b60405180910390fd5b600073ffffffffffffffffffffffffffffffffffffffff168273ffffffffffffffffffffffffffffffffffffffff1603611384576040517f08c379a000000000000000000000000000000000000000000000000000000000815260040161137b90612fd9565b60405180910390fd5b61138f8383836119ed565b61139a600082611108565b6001600360008573ffffffffffffffffffffffffffffffffffffffff1673ffffffffffffffffffffffffffffffffffffffff16815260200190815260200160002060008282546113ea9190613028565b925050819055506001600360008473ffffffffffffffffffffffffffffffffffffffff1673ffffffffffffffffffffffffffffffffffffffff1681526020019081526020016000206000828254611441919061305c565b92505081905550816002600083815260200190815260200160002060006101000a81548173ffffffffffffffffffffffffffffffffffffffff021916908373ffffffffffffffffffffffffffffffffffffffff160217905550808273ffffffffffffffffffffffffffffffffffffffff168473ffffffffffffffffffffffffffffffffffffffff167fddf252ad1be2c89b69c2b068fc378daa952ba7f163c4a11628f55a4df523b3ef60405160405180910390a46115008383836119f2565b505050565b60008160000154905060008111611551576040517f08c379a0000000000000000000000000000000000000000000000000000000008152600401611548906130fe565b60405180910390fd5b6001810382600001819055505050565b8173ffffffffffffffffffffffffffffffffffffffff168373ffffffffffffffffffffffffffffffffffffffff16036115cf576040517f08c379a00000000000000000000000000000000000000000000000000000000081526004016115c69061316a565b60405180910390fd5b80600560008573ffffffffffffffffffffffffffffffffffffffff1673ffffffffffffffffffffffffffffffffffffffff16815260200190815260200160002060008473ffffffffffffffffffffffffffffffffffffffff1673ffffffffffffffffffffffffffffffffffffffff16815260200190815260200160002060006101000a81548160ff0219169083151502179055508173ffffffffffffffffffffffffffffffffffffffff168373ffffffffffffffffffffffffffffffffffffffff167f17307eab39ab6107e8899845ad3d59bd9653f200f220920489ca2b5937696c31836040516116c091906120cc565b60405180910390a3505050565b6116d884848461129f565b6116e4848484846119f7565b611723576040517f08c379a000000000000000000000000000000000000000000000000000000000815260040161171a906131fc565b60405180910390fd5b50505050565b6001816000016000828254019250508190555050565b600081600001549050919050565b611767828260405180602001604052806000815250611b7e565b5050565b61177482611094565b6117b3576040517f08c379a00000000000000000000000000000000000000000000000000000000081526004016117aa9061328e565b60405180910390fd5b806006600084815260200190815260200160002090805190602001906117da929190611f75565b505050565b60008111611822576040517f08c379a0000000000000000000000000000000000000000000000000000000008152600401611819906132fa565b60405180910390fd5b60405180608001604052808381526020018281526020013373ffffffffffffffffffffffffffffffffffffffff16815260200160011515815250600b6000848152602001908152602001600020600082015181600001556020820151816001015560408201518160020160006101000a81548173ffffffffffffffffffffffffffffffffffffffff021916908373ffffffffffffffffffffffffffffffffffffffff16021790555060608201518160020160146101000a81548160ff0219169083151502179055509050507f470031062672bc0246e132c723a729c4676710ec663a29e86c88678032daddea8282336001604051611923949392919061331a565b60405180910390a15050565b606060405180602001604052806000815250905090565b606061195182611094565b611990576040517f08c379a0000000000000000000000000000000000000000000000000000000008152600401611987906133d1565b60405180910390fd5b600061199a61192f565b905060008151116119ba57604051806020016040528060008152506119e5565b806119c484611bd9565b6040516020016119d5929190612e1f565b6040516020818303038152906040525b915050919050565b505050565b505050565b6000611a188473ffffffffffffffffffffffffffffffffffffffff16611d39565b15611b71578373ffffffffffffffffffffffffffffffffffffffff1663150b7a02611a41611100565b8786866040518563ffffffff1660e01b8152600401611a639493929190613446565b6020604051808303816000875af1925050508015611a9f57506040513d601f19601f82011682018060405250810190611a9c91906134a7565b60015b611b21573d8060008114611acf576040519150601f19603f3d011682016040523d82523d6000602084013e611ad4565b606091505b506000815103611b19576040517f08c379a0000000000000000000000000000000000000000000000000000000008152600401611b10906131fc565b60405180910390fd5b805181602001fd5b63150b7a0260e01b7bffffffffffffffffffffffffffffffffffffffffffffffffffffffff1916817bffffffffffffffffffffffffffffffffffffffffffffffffffffffff191614915050611b76565b600190505b949350505050565b611b888383611d5c565b611b9560008484846119f7565b611bd4576040517f08c379a0000000000000000000000000000000000000000000000000000000008152600401611bcb906131fc565b60405180910390fd5b505050565b606060008203611c20576040518060400160405280600181526020017f30000000000000000000000000000000000000000000000000000000000000008152509050611d34565b600082905060005b60008214611c52578080611c3b906134d4565b915050600a82611c4b919061354b565b9150611c28565b60008167ffffffffffffffff811115611c6e57611c6d61232a565b5b6040519080825280601f01601f191660200182016040528015611ca05781602001600182028036833780820191505090505b5090505b60008514611d2d57600182611cb99190613028565b9150600a85611cc8919061357c565b6030611cd4919061305c565b60f81b818381518110611cea57611ce96135ad565b5b60200101907effffffffffffffffffffffffffffffffffffffffffffffffffffffffffffff1916908160001a905350600a85611d26919061354b565b9450611ca4565b8093505050505b919050565b6000808273ffffffffffffffffffffffffffffffffffffffff163b119050919050565b600073ffffffffffffffffffffffffffffffffffffffff168273ffffffffffffffffffffffffffffffffffffffff1603611dcb576040517f08c379a0000000000000000000000000000000000000000000000000000000008152600401611dc290613628565b60405180910390fd5b611dd481611094565b15611e14576040517f08c379a0000000000000000000000000000000000000000000000000000000008152600401611e0b90613694565b60405180910390fd5b611e20600083836119ed565b6001600360008473ffffffffffffffffffffffffffffffffffffffff1673ffffffffffffffffffffffffffffffffffffffff1681526020019081526020016000206000828254611e70919061305c565b92505081905550816002600083815260200190815260200160002060006101000a81548173ffffffffffffffffffffffffffffffffffffffff021916908373ffffffffffffffffffffffffffffffffffffffff160217905550808273ffffffffffffffffffffffffffffffffffffffff16600073ffffffffffffffffffffffffffffffffffffffff167fddf252ad1be2c89b69c2b068fc378daa952ba7f163c4a11628f55a4df523b3ef60405160405180910390a4611f31600083836119f2565b5050565b60405180608001604052806000815260200160008152602001600073ffffffffffffffffffffffffffffffffffffffff1681526020016000151581525090565b828054611f81906127ed565b90600052602060002090601f016020900481019282611fa35760008555611fea565b82601f10611fbc57805160ff1916838001178555611fea565b82800160010185558215611fea579182015b82811115611fe9578251825591602001919060010190611fce565b5b509050611ff79190611ffb565b5090565b5b80821115612014576000816000905550600101611ffc565b5090565b6000604051905090565b600080fd5b600080fd5b60007fffffffff0000000000000000000000000000000000000000000000000000000082169050919050565b6120618161202c565b811461206c57600080fd5b50565b60008135905061207e81612058565b92915050565b60006020828403121561209a57612099612022565b5b60006120a88482850161206f565b91505092915050565b60008115159050919050565b6120c6816120b1565b82525050565b60006020820190506120e160008301846120bd565b92915050565b600081519050919050565b600082825260208201905092915050565b60005b83811015612121578082015181840152602081019050612106565b83811115612130576000848401525b50505050565b6000601f19601f8301169050919050565b6000612152826120e7565b61215c81856120f2565b935061216c818560208601612103565b61217581612136565b840191505092915050565b6000602082019050818103600083015261219a8184612147565b905092915050565b6000819050919050565b6121b5816121a2565b81146121c057600080fd5b50565b6000813590506121d2816121ac565b92915050565b6000602082840312156121ee576121ed612022565b5b60006121fc848285016121c3565b91505092915050565b600073ffffffffffffffffffffffffffffffffffffffff82169050919050565b600061223082612205565b9050919050565b61224081612225565b82525050565b600060208201905061225b6000830184612237565b92915050565b61226a81612225565b811461227557600080fd5b50565b60008135905061228781612261565b92915050565b600080604083850312156122a4576122a3612022565b5b60006122b285828601612278565b92505060206122c3858286016121c3565b9150509250929050565b6000806000606084860312156122e6576122e5612022565b5b60006122f486828701612278565b935050602061230586828701612278565b9250506040612316868287016121c3565b9150509250925092565b600080fd5b600080fd5b7f4e487b7100000000000000000000000000000000000000000000000000000000600052604160045260246000fd5b61236282612136565b810181811067ffffffffffffffff821117156123815761238061232a565b5b80604052505050565b6000612394612018565b90506123a08282612359565b919050565b600067ffffffffffffffff8211156123c0576123bf61232a565b5b6123c982612136565b9050602081019050919050565b82818337600083830152505050565b60006123f86123f3846123a5565b61238a565b90508281526020810184848401111561241457612413612325565b5b61241f8482856123d6565b509392505050565b600082601f83011261243c5761243b612320565b5b813561244c8482602086016123e5565b91505092915050565b60006020828403121561246b5761246a612022565b5b600082013567ffffffffffffffff81111561248957612488612027565b5b61249584828501612427565b91505092915050565b6124a7816121a2565b82525050565b6124b681612225565b82525050565b6124c5816120b1565b82525050565b6080820160008201516124e1600085018261249e565b5060208201516124f4602085018261249e565b50604082015161250760408501826124ad565b50606082015161251a60608501826124bc565b50505050565b600060808201905061253560008301846124cb565b92915050565b60006020828403121561255157612550612022565b5b600061255f84828501612278565b91505092915050565b612571816121a2565b82525050565b600060208201905061258c6000830184612568565b92915050565b61259b816120b1565b81146125a657600080fd5b50565b6000813590506125b881612592565b92915050565b600080604083850312156125d5576125d4612022565b5b60006125e385828601612278565b92505060206125f4858286016125a9565b9150509250929050565b600067ffffffffffffffff8211156126195761261861232a565b5b61262282612136565b9050602081019050919050565b600061264261263d846125fe565b61238a565b90508281526020810184848401111561265e5761265d612325565b5b6126698482856123d6565b509392505050565b600082601f83011261268657612685612320565b5b813561269684826020860161262f565b91505092915050565b600080600080608085870312156126b9576126b8612022565b5b60006126c787828801612278565b94505060206126d887828801612278565b93505060406126e9878288016121c3565b925050606085013567ffffffffffffffff81111561270a57612709612027565b5b61271687828801612671565b91505092959194509250565b6000806040838503121561273957612738612022565b5b600083013567ffffffffffffffff81111561275757612756612027565b5b61276385828601612427565b9250506020612774858286016121c3565b9150509250929050565b6000806040838503121561279557612794612022565b5b60006127a385828601612278565b92505060206127b485828601612278565b9150509250929050565b7f4e487b7100000000000000000000000000000000000000000000000000000000600052602260045260246000fd5b6000600282049050600182168061280557607f821691505b602082108103612818576128176127be565b5b50919050565b7f4552433732313a20617070726f76656420717565727920666f72206e6f6e657860008201527f697374656e7420746f6b656e0000000000000000000000000000000000000000602082015250565b600061287a602c836120f2565b91506128858261281e565b604082019050919050565b600060208201905081810360008301526128a98161286d565b9050919050565b7f4552433732313a20617070726f76616c20746f2063757272656e74206f776e6560008201527f7200000000000000000000000000000000000000000000000000000000000000602082015250565b600061290c6021836120f2565b9150612917826128b0565b604082019050919050565b6000602082019050818103600083015261293b816128ff565b9050919050565b7f4552433732313a20617070726f76652063616c6c6572206973206e6f74206f7760008201527f6e6572206e6f7220617070726f76656420666f7220616c6c0000000000000000602082015250565b600061299e6038836120f2565b91506129a982612942565b604082019050919050565b600060208201905081810360008301526129cd81612991565b9050919050565b7f4552433732313a207472616e736665722063616c6c6572206973206e6f74206f60008201527f776e6572206e6f7220617070726f766564000000000000000000000000000000602082015250565b6000612a306031836120f2565b9150612a3b826129d4565b604082019050919050565b60006020820190508181036000830152612a5f81612a23565b9050919050565b7f796f7520616c7265616479206f776e2074686973204e46540000000000000000600082015250565b6000612a9c6018836120f2565b9150612aa782612a66565b602082019050919050565b60006020820190508181036000830152612acb81612a8f565b9050919050565b7f706c65617365207375626d6974207468652061736b696e672070726963650000600082015250565b6000612b08601e836120f2565b9150612b1382612ad2565b602082019050919050565b60006020820190508181036000830152612b3781612afb565b9050919050565b600081905092915050565b6000612b54826120e7565b612b5e8185612b3e565b9350612b6e818560208601612103565b80840191505092915050565b6000612b868284612b49565b915081905092915050565b7f4552433732313a206f776e657220717565727920666f72206e6f6e657869737460008201527f656e7420746f6b656e0000000000000000000000000000000000000000000000602082015250565b6000612bed6029836120f2565b9150612bf882612b91565b604082019050919050565b60006020820190508181036000830152612c1c81612be0565b9050919050565b7f4552433732313a2062616c616e636520717565727920666f7220746865207a6560008201527f726f206164647265737300000000000000000000000000000000000000000000602082015250565b6000612c7f602a836120f2565b9150612c8a82612c23565b604082019050919050565b60006020820190508181036000830152612cae81612c72565b9050919050565b7f546f6b656e2055524920616c7265616479206578697374000000000000000000600082015250565b6000612ceb6017836120f2565b9150612cf682612cb5565b602082019050919050565b60006020820190508181036000830152612d1a81612cde565b9050919050565b7f707269636520697320657175616c20746f206c697374696e6720707269636500600082015250565b6000612d57601f836120f2565b9150612d6282612d21565b602082019050919050565b60006020820190508181036000830152612d8681612d4a565b9050919050565b7f45524337323155524953746f726167653a2055524920717565727920666f722060008201527f6e6f6e6578697374656e7420746f6b656e000000000000000000000000000000602082015250565b6000612de96031836120f2565b9150612df482612d8d565b604082019050919050565b60006020820190508181036000830152612e1881612ddc565b9050919050565b6000612e2b8285612b49565b9150612e378284612b49565b91508190509392505050565b7f4552433732313a206f70657261746f7220717565727920666f72206e6f6e657860008201527f697374656e7420746f6b656e0000000000000000000000000000000000000000602082015250565b6000612e9f602c836120f2565b9150612eaa82612e43565b604082019050919050565b60006020820190508181036000830152612ece81612e92565b9050919050565b7f4552433732313a207472616e736665722066726f6d20696e636f72726563742060008201527f6f776e6572000000000000000000000000000000000000000000000000000000602082015250565b6000612f316025836120f2565b9150612f3c82612ed5565b604082019050919050565b60006020820190508181036000830152612f6081612f24565b9050919050565b7f4552433732313a207472616e7366657220746f20746865207a65726f2061646460008201527f7265737300000000000000000000000000000000000000000000000000000000602082015250565b6000612fc36024836120f2565b9150612fce82612f67565b604082019050919050565b60006020820190508181036000830152612ff281612fb6565b9050919050565b7f4e487b7100000000000000000000000000000000000000000000000000000000600052601160045260246000fd5b6000613033826121a2565b915061303e836121a2565b92508282101561305157613050612ff9565b5b828203905092915050565b6000613067826121a2565b9150613072836121a2565b9250827fffffffffffffffffffffffffffffffffffffffffffffffffffffffffffffffff038211156130a7576130a6612ff9565b5b828201905092915050565b7f436f756e7465723a2064656372656d656e74206f766572666c6f770000000000600082015250565b60006130e8601b836120f2565b91506130f3826130b2565b602082019050919050565b60006020820190508181036000830152613117816130db565b9050919050565b7f4552433732313a20617070726f766520746f2063616c6c657200000000000000600082015250565b60006131546019836120f2565b915061315f8261311e565b602082019050919050565b6000602082019050818103600083015261318381613147565b9050919050565b7f4552433732313a207472616e7366657220746f206e6f6e20455243373231526560008201527f63656976657220696d706c656d656e7465720000000000000000000000000000602082015250565b60006131e66032836120f2565b91506131f18261318a565b604082019050919050565b60006020820190508181036000830152613215816131d9565b9050919050565b7f45524337323155524953746f726167653a2055524920736574206f66206e6f6e60008201527f6578697374656e7420746f6b656e000000000000000000000000000000000000602082015250565b6000613278602e836120f2565b91506132838261321c565b604082019050919050565b600060208201905081810360008301526132a78161326b565b9050919050565b7f7072696365206d757374206265206174206c6561737420312077656900000000600082015250565b60006132e4601c836120f2565b91506132ef826132ae565b602082019050919050565b60006020820190508181036000830152613313816132d7565b9050919050565b600060808201905061332f6000830187612568565b61333c6020830186612568565b6133496040830185612237565b61335660608301846120bd565b95945050505050565b7f4552433732314d657461646174613a2055524920717565727920666f72206e6f60008201527f6e6578697374656e7420746f6b656e0000000000000000000000000000000000602082015250565b60006133bb602f836120f2565b91506133c68261335f565b604082019050919050565b600060208201905081810360008301526133ea816133ae565b9050919050565b600081519050919050565b600082825260208201905092915050565b6000613418826133f1565b61342281856133fc565b9350613432818560208601612103565b61343b81612136565b840191505092915050565b600060808201905061345b6000830187612237565b6134686020830186612237565b6134756040830185612568565b8181036060830152613487818461340d565b905095945050505050565b6000815190506134a181612058565b92915050565b6000602082840312156134bd576134bc612022565b5b60006134cb84828501613492565b91505092915050565b60006134df826121a2565b91507fffffffffffffffffffffffffffffffffffffffffffffffffffffffffffffffff820361351157613510612ff9565b5b600182019050919050565b7f4e487b7100000000000000000000000000000000000000000000000000000000600052601260045260246000fd5b6000613556826121a2565b9150613561836121a2565b9250826135715761357061351c565b5b828204905092915050565b6000613587826121a2565b9150613592836121a2565b9250826135a2576135a161351c565b5b828206905092915050565b7f4e487b7100000000000000000000000000000000000000000000000000000000600052603260045260246000fd5b7f4552433732313a206d696e7420746f20746865207a65726f2061646472657373600082015250565b60006136126020836120f2565b915061361d826135dc565b602082019050919050565b6000602082019050818103600083015261364181613605565b9050919050565b7f4552433732313a20746f6b656e20616c7265616479206d696e74656400000000600082015250565b600061367e601c836120f2565b915061368982613648565b602082019050919050565b600060208201905081810360008301526136ad81613671565b905091905056fea2646970667358221220acd907e7eca0920855e86239519ea912c83e08e4a014e7afddb24a99909c22b964736f6c634300080d0033",
  "immutableReferences": {},
  "source": "// SPDX-License-Identifier: MIT\r\npragma solidity >=0.4.22 <0.9.0;\r\n\r\nimport \"@openzeppelin/contracts/token/ERC721/extensions/ERC721URIStorage.sol\";\r\nimport \"@openzeppelin/contracts/utils/Counters.sol\";\r\n\r\n\r\ncontract NftMarket is ERC721URIStorage{\r\n    \r\n    using Counters for Counters.Counter;\r\n\r\n    Counters.Counter private _listedItems;\r\n    Counters.Counter private _tokenIds;\r\n\r\n\r\n    struct NftItem {\r\n        uint tokenId;\r\n        uint price;\r\n        address creator;\r\n        bool isListed;\r\n    }\r\n\r\n    uint public listingPrice  = 0.025 ether;\r\n    mapping (string => bool) private _usedTokenURI;\r\n    mapping (uint => NftItem) private _idToNftItem;\r\n\r\n    event NftItemCreated(\r\n        uint tokenId,\r\n        uint price,\r\n        address creator,\r\n        bool isListed\r\n    );\r\n\r\n    constructor() ERC721(\"CreaturesNFT\",\"CNFT\") {}\r\n\r\n\r\n    function _createNftItem(uint tokenId, uint price) private {\r\n        require(price > 0 , \"price must be at least 1 wei\");\r\n\r\n        _idToNftItem[tokenId] = NftItem(\r\n            tokenId,\r\n            price,\r\n            msg.sender,\r\n            true\r\n        );\r\n\r\n        emit NftItemCreated(tokenId, price, msg.sender, true);\r\n    }\r\n\r\n\r\n    function getNftItem(uint tokenId) public view returns(NftItem memory){\r\n        return _idToNftItem[tokenId];\r\n    }\r\n\r\n\r\n    function listedItemsCount() public view returns(uint) {\r\n        return _listedItems.current();\r\n    }\r\n\r\n    function tokenURIExists(string memory tokenURI) public view returns (bool) {\r\n        return _usedTokenURI[tokenURI] == true;\r\n    }\r\n\r\n    function buyNft(uint tokenId) public payable {\r\n\r\n            uint price = _idToNftItem[tokenId].price;\r\n            address owner = ownerOf(tokenId);\r\n            \r\n            require(msg.sender != owner , \"you already own this NFT\");\r\n            require(msg.value == price,\"please submit the asking price\");\r\n\r\n            _idToNftItem[tokenId].isListed = false;\r\n            _listedItems.decrement();\r\n\r\n            _transfer(owner, msg.sender, tokenId);\r\n            payable(owner).transfer(msg.value);\r\n\r\n\r\n    }\r\n\r\n\r\n    function mintToken(string memory tokenURI, uint price) public payable returns (uint){\r\n        require(!tokenURIExists(tokenURI),\"Token URI already exist\");\r\n        require(msg.value == listingPrice , \"price is equal to listing price\");\r\n\r\n\r\n        _tokenIds.increment();\r\n        _listedItems.increment();\r\n\r\n        uint newTokenId = _tokenIds.current();\r\n\r\n        _safeMint(msg.sender, newTokenId);\r\n        _setTokenURI(newTokenId, tokenURI);\r\n\r\n        _createNftItem(newTokenId,price);\r\n\r\n        _usedTokenURI[tokenURI] = true;\r\n        \r\n        return newTokenId;\r\n    }\r\n\r\n    \r\n}",
  "sourcePath": "D:\\blockchain\\nft-marketplace\\contracts\\NftMarket.sol",
  "compiler": {
    "name": "solc",
    "version": "0.8.13+commit.abaa5c0e.Emscripten.clang"
  },
  "schemaVersion": "3.4.16",
  "updatedAt": "2024-08-16T03:38:02.274Z",
  "devdoc": {
    "kind": "dev",
    "methods": {
      "approve(address,uint256)": {
        "details": "See {IERC721-approve}."
      },
      "balanceOf(address)": {
        "details": "See {IERC721-balanceOf}."
      },
      "getApproved(uint256)": {
        "details": "See {IERC721-getApproved}."
      },
      "isApprovedForAll(address,address)": {
        "details": "See {IERC721-isApprovedForAll}."
      },
      "name()": {
        "details": "See {IERC721Metadata-name}."
      },
      "ownerOf(uint256)": {
        "details": "See {IERC721-ownerOf}."
      },
      "safeTransferFrom(address,address,uint256)": {
        "details": "See {IERC721-safeTransferFrom}."
      },
      "safeTransferFrom(address,address,uint256,bytes)": {
        "details": "See {IERC721-safeTransferFrom}."
      },
      "setApprovalForAll(address,bool)": {
        "details": "See {IERC721-setApprovalForAll}."
      },
      "supportsInterface(bytes4)": {
        "details": "See {IERC165-supportsInterface}."
      },
      "symbol()": {
        "details": "See {IERC721Metadata-symbol}."
      },
      "tokenURI(uint256)": {
        "details": "See {IERC721Metadata-tokenURI}."
      },
      "transferFrom(address,address,uint256)": {
        "details": "See {IERC721-transferFrom}."
      }
    },
    "version": 1
  },
  "userdoc": {
    "kind": "user",
    "methods": {},
    "version": 1
  }
}