{
  "contractName": "NftMarket",
  "abi": [
    {
      "inputs": [],
      "stateMutability": "nonpayable",
      "type": "constructor"
    },
    {
      "anonymous": false,
      "inputs": [
        {
          "indexed": true,
          "internalType": "address",
          "name": "owner",
          "type": "address"
        },
        {
          "indexed": true,
          "internalType": "address",
          "name": "approved",
          "type": "address"
        },
        {
          "indexed": true,
          "internalType": "uint256",
          "name": "tokenId",
          "type": "uint256"
        }
      ],
      "name": "Approval",
      "type": "event"
    },
    {
      "anonymous": false,
      "inputs": [
        {
          "indexed": true,
          "internalType": "address",
          "name": "owner",
          "type": "address"
        },
        {
          "indexed": true,
          "internalType": "address",
          "name": "operator",
          "type": "address"
        },
        {
          "indexed": false,
          "internalType": "bool",
          "name": "approved",
          "type": "bool"
        }
      ],
      "name": "ApprovalForAll",
      "type": "event"
    },
    {
      "anonymous": false,
      "inputs": [
        {
          "indexed": false,
          "internalType": "uint256",
          "name": "tokenId",
          "type": "uint256"
        },
        {
          "indexed": false,
          "internalType": "uint256",
          "name": "price",
          "type": "uint256"
        },
        {
          "indexed": false,
          "internalType": "address",
          "name": "creator",
          "type": "address"
        },
        {
          "indexed": false,
          "internalType": "bool",
          "name": "isListed",
          "type": "bool"
        }
      ],
      "name": "NftItemCreated",
      "type": "event"
    },
    {
      "anonymous": false,
      "inputs": [
        {
          "indexed": true,
          "internalType": "address",
          "name": "previousOwner",
          "type": "address"
        },
        {
          "indexed": true,
          "internalType": "address",
          "name": "newOwner",
          "type": "address"
        }
      ],
      "name": "OwnershipTransferred",
      "type": "event"
    },
    {
      "anonymous": false,
      "inputs": [
        {
          "indexed": true,
          "internalType": "address",
          "name": "from",
          "type": "address"
        },
        {
          "indexed": true,
          "internalType": "address",
          "name": "to",
          "type": "address"
        },
        {
          "indexed": true,
          "internalType": "uint256",
          "name": "tokenId",
          "type": "uint256"
        }
      ],
      "name": "Transfer",
      "type": "event"
    },
    {
      "inputs": [
        {
          "internalType": "address",
          "name": "to",
          "type": "address"
        },
        {
          "internalType": "uint256",
          "name": "tokenId",
          "type": "uint256"
        }
      ],
      "name": "approve",
      "outputs": [],
      "stateMutability": "nonpayable",
      "type": "function"
    },
    {
      "inputs": [
        {
          "internalType": "address",
          "name": "owner",
          "type": "address"
        }
      ],
      "name": "balanceOf",
      "outputs": [
        {
          "internalType": "uint256",
          "name": "",
          "type": "uint256"
        }
      ],
      "stateMutability": "view",
      "type": "function",
      "constant": true
    },
    {
      "inputs": [
        {
          "internalType": "uint256",
          "name": "tokenId",
          "type": "uint256"
        }
      ],
      "name": "getApproved",
      "outputs": [
        {
          "internalType": "address",
          "name": "",
          "type": "address"
        }
      ],
      "stateMutability": "view",
      "type": "function",
      "constant": true
    },
    {
      "inputs": [
        {
          "internalType": "address",
          "name": "owner",
          "type": "address"
        },
        {
          "internalType": "address",
          "name": "operator",
          "type": "address"
        }
      ],
      "name": "isApprovedForAll",
      "outputs": [
        {
          "internalType": "bool",
          "name": "",
          "type": "bool"
        }
      ],
      "stateMutability": "view",
      "type": "function",
      "constant": true
    },
    {
      "inputs": [],
      "name": "listingPrice",
      "outputs": [
        {
          "internalType": "uint256",
          "name": "",
          "type": "uint256"
        }
      ],
      "stateMutability": "view",
      "type": "function",
      "constant": true
    },
    {
      "inputs": [],
      "name": "name",
      "outputs": [
        {
          "internalType": "string",
          "name": "",
          "type": "string"
        }
      ],
      "stateMutability": "view",
      "type": "function",
      "constant": true
    },
    {
      "inputs": [],
      "name": "owner",
      "outputs": [
        {
          "internalType": "address",
          "name": "",
          "type": "address"
        }
      ],
      "stateMutability": "view",
      "type": "function",
      "constant": true
    },
    {
      "inputs": [
        {
          "internalType": "uint256",
          "name": "tokenId",
          "type": "uint256"
        }
      ],
      "name": "ownerOf",
      "outputs": [
        {
          "internalType": "address",
          "name": "",
          "type": "address"
        }
      ],
      "stateMutability": "view",
      "type": "function",
      "constant": true
    },
    {
      "inputs": [],
      "name": "renounceOwnership",
      "outputs": [],
      "stateMutability": "nonpayable",
      "type": "function"
    },
    {
      "inputs": [
        {
          "internalType": "address",
          "name": "from",
          "type": "address"
        },
        {
          "internalType": "address",
          "name": "to",
          "type": "address"
        },
        {
          "internalType": "uint256",
          "name": "tokenId",
          "type": "uint256"
        }
      ],
      "name": "safeTransferFrom",
      "outputs": [],
      "stateMutability": "nonpayable",
      "type": "function"
    },
    {
      "inputs": [
        {
          "internalType": "address",
          "name": "from",
          "type": "address"
        },
        {
          "internalType": "address",
          "name": "to",
          "type": "address"
        },
        {
          "internalType": "uint256",
          "name": "tokenId",
          "type": "uint256"
        },
        {
          "internalType": "bytes",
          "name": "_data",
          "type": "bytes"
        }
      ],
      "name": "safeTransferFrom",
      "outputs": [],
      "stateMutability": "nonpayable",
      "type": "function"
    },
    {
      "inputs": [
        {
          "internalType": "address",
          "name": "operator",
          "type": "address"
        },
        {
          "internalType": "bool",
          "name": "approved",
          "type": "bool"
        }
      ],
      "name": "setApprovalForAll",
      "outputs": [],
      "stateMutability": "nonpayable",
      "type": "function"
    },
    {
      "inputs": [
        {
          "internalType": "bytes4",
          "name": "interfaceId",
          "type": "bytes4"
        }
      ],
      "name": "supportsInterface",
      "outputs": [
        {
          "internalType": "bool",
          "name": "",
          "type": "bool"
        }
      ],
      "stateMutability": "view",
      "type": "function",
      "constant": true
    },
    {
      "inputs": [],
      "name": "symbol",
      "outputs": [
        {
          "internalType": "string",
          "name": "",
          "type": "string"
        }
      ],
      "stateMutability": "view",
      "type": "function",
      "constant": true
    },
    {
      "inputs": [
        {
          "internalType": "uint256",
          "name": "tokenId",
          "type": "uint256"
        }
      ],
      "name": "tokenURI",
      "outputs": [
        {
          "internalType": "string",
          "name": "",
          "type": "string"
        }
      ],
      "stateMutability": "view",
      "type": "function",
      "constant": true
    },
    {
      "inputs": [
        {
          "internalType": "address",
          "name": "from",
          "type": "address"
        },
        {
          "internalType": "address",
          "name": "to",
          "type": "address"
        },
        {
          "internalType": "uint256",
          "name": "tokenId",
          "type": "uint256"
        }
      ],
      "name": "transferFrom",
      "outputs": [],
      "stateMutability": "nonpayable",
      "type": "function"
    },
    {
      "inputs": [
        {
          "internalType": "address",
          "name": "newOwner",
          "type": "address"
        }
      ],
      "name": "transferOwnership",
      "outputs": [],
      "stateMutability": "nonpayable",
      "type": "function"
    },
    {
      "inputs": [],
      "name": "totalSupply",
      "outputs": [
        {
          "internalType": "uint256",
          "name": "",
          "type": "uint256"
        }
      ],
      "stateMutability": "view",
      "type": "function",
      "constant": true
    },
    {
      "inputs": [
        {
          "internalType": "uint256",
          "name": "index",
          "type": "uint256"
        }
      ],
      "name": "tokenByIndex",
      "outputs": [
        {
          "internalType": "uint256",
          "name": "",
          "type": "uint256"
        }
      ],
      "stateMutability": "view",
      "type": "function",
      "constant": true
    },
    {
      "inputs": [
        {
          "internalType": "uint256",
          "name": "tokenId",
          "type": "uint256"
        }
      ],
      "name": "burnToken",
      "outputs": [],
      "stateMutability": "nonpayable",
      "type": "function"
    },
    {
      "inputs": [
        {
          "internalType": "uint256",
          "name": "newPrice",
          "type": "uint256"
        }
      ],
      "name": "setListingPrice",
      "outputs": [],
      "stateMutability": "nonpayable",
      "type": "function"
    },
    {
      "inputs": [
        {
          "internalType": "uint256",
          "name": "tokenId",
          "type": "uint256"
        }
      ],
      "name": "getNftItem",
      "outputs": [
        {
          "components": [
            {
              "internalType": "uint256",
              "name": "tokenId",
              "type": "uint256"
            },
            {
              "internalType": "uint256",
              "name": "price",
              "type": "uint256"
            },
            {
              "internalType": "address",
              "name": "creator",
              "type": "address"
            },
            {
              "internalType": "bool",
              "name": "isListed",
              "type": "bool"
            }
          ],
          "internalType": "struct NftMarket.NftItem",
          "name": "",
          "type": "tuple"
        }
      ],
      "stateMutability": "view",
      "type": "function",
      "constant": true
    },
    {
      "inputs": [],
      "name": "listedItemsCount",
      "outputs": [
        {
          "internalType": "uint256",
          "name": "",
          "type": "uint256"
        }
      ],
      "stateMutability": "view",
      "type": "function",
      "constant": true
    },
    {
      "inputs": [
        {
          "internalType": "string",
          "name": "tokenURI",
          "type": "string"
        }
      ],
      "name": "tokenURIExists",
      "outputs": [
        {
          "internalType": "bool",
          "name": "",
          "type": "bool"
        }
      ],
      "stateMutability": "view",
      "type": "function",
      "constant": true
    },
    {
      "inputs": [
        {
          "internalType": "address",
          "name": "owner",
          "type": "address"
        },
        {
          "internalType": "uint256",
          "name": "index",
          "type": "uint256"
        }
      ],
      "name": "tokenOfOwnerByIndex",
      "outputs": [
        {
          "internalType": "uint256",
          "name": "",
          "type": "uint256"
        }
      ],
      "stateMutability": "view",
      "type": "function",
      "constant": true
    },
    {
      "inputs": [
        {
          "internalType": "uint256",
          "name": "tokenId",
          "type": "uint256"
        },
        {
          "internalType": "uint256",
          "name": "newPrice",
          "type": "uint256"
        }
      ],
      "name": "placeNftOnSale",
      "outputs": [],
      "stateMutability": "payable",
      "type": "function",
      "payable": true
    },
    {
      "inputs": [],
      "name": "getOwnedNfts",
      "outputs": [
        {
          "components": [
            {
              "internalType": "uint256",
              "name": "tokenId",
              "type": "uint256"
            },
            {
              "internalType": "uint256",
              "name": "price",
              "type": "uint256"
            },
            {
              "internalType": "address",
              "name": "creator",
              "type": "address"
            },
            {
              "internalType": "bool",
              "name": "isListed",
              "type": "bool"
            }
          ],
          "internalType": "struct NftMarket.NftItem[]",
          "name": "",
          "type": "tuple[]"
        }
      ],
      "stateMutability": "view",
      "type": "function",
      "constant": true
    },
    {
      "inputs": [],
      "name": "getAllNftsOnSale",
      "outputs": [
        {
          "components": [
            {
              "internalType": "uint256",
              "name": "tokenId",
              "type": "uint256"
            },
            {
              "internalType": "uint256",
              "name": "price",
              "type": "uint256"
            },
            {
              "internalType": "address",
              "name": "creator",
              "type": "address"
            },
            {
              "internalType": "bool",
              "name": "isListed",
              "type": "bool"
            }
          ],
          "internalType": "struct NftMarket.NftItem[]",
          "name": "",
          "type": "tuple[]"
        }
      ],
      "stateMutability": "view",
      "type": "function",
      "constant": true
    },
    {
      "inputs": [
        {
          "internalType": "uint256",
          "name": "tokenId",
          "type": "uint256"
        }
      ],
      "name": "buyNft",
      "outputs": [],
      "stateMutability": "payable",
      "type": "function",
      "payable": true
    },
    {
      "inputs": [
        {
          "internalType": "string",
          "name": "tokenURI",
          "type": "string"
        },
        {
          "internalType": "uint256",
          "name": "price",
          "type": "uint256"
        }
      ],
      "name": "mintToken",
      "outputs": [
        {
          "internalType": "uint256",
          "name": "",
          "type": "uint256"
        }
      ],
      "stateMutability": "payable",
      "type": "function",
      "payable": true
    }
  ],
  "bytecode": "0x60806040526658d15e17628000600b553480156200001c57600080fd5b506040518060400160405280600c81526020017f4372656174757265734e465400000000000000000000000000000000000000008152506040518060400160405280600481526020017f434e4654000000000000000000000000000000000000000000000000000000008152508160009080519060200190620000a1929190620001b1565b508060019080519060200190620000ba929190620001b1565b505050620000dd620000d1620000e360201b60201c565b620000eb60201b60201c565b620002c5565b600033905090565b6000600760009054906101000a900473ffffffffffffffffffffffffffffffffffffffff16905081600760006101000a81548173ffffffffffffffffffffffffffffffffffffffff021916908373ffffffffffffffffffffffffffffffffffffffff1602179055508173ffffffffffffffffffffffffffffffffffffffff168173ffffffffffffffffffffffffffffffffffffffff167f8be0079c531659141344cd1fd0a4f28419497f9722a3daafe3b4186f6b6457e060405160405180910390a35050565b828054620001bf9062000290565b90600052602060002090601f016020900481019282620001e357600085556200022f565b82601f10620001fe57805160ff19168380011785556200022f565b828001600101855582156200022f579182015b828111156200022e57825182559160200191906001019062000211565b5b5090506200023e919062000242565b5090565b5b808211156200025d57600081600090555060010162000243565b5090565b7f4e487b7100000000000000000000000000000000000000000000000000000000600052602260045260246000fd5b60006002820490506001821680620002a957607f821691505b602082108103620002bf57620002be62000261565b5b50919050565b614d5a80620002d56000396000f3fe6080604052600436106101cd5760003560e01c806370a08231116100f7578063a22cb46511610095578063c87b56dd11610064578063c87b56dd14610685578063ccb4918d146106c2578063e985e9c5146106ed578063f2fde38b1461072a576101cd565b8063a22cb465146105d8578063b88d4fde14610601578063c046372c1461062a578063c78f19f91461065a576101cd565b80637b47ec1a116100d15780637b47ec1a146105305780637c726b69146105595780638da5cb5b1461058257806395d89b41146105ad576101cd565b806370a08231146104b157806370cbcb43146104ee578063715018a614610519576101cd565b8063243adbdd1161016f57806343d32ae71161013e57806343d32ae7146103bd5780634f6ccce7146103fa5780636352211e146104375780636f1a0af514610474576101cd565b8063243adbdd146103105780632f745c591461032c57806336b536be1461036957806342842e0e14610394576101cd565b8063095ea7b3116101ab578063095ea7b31461027757806318160ddd146102a057806321f422e5146102cb57806323b872dd146102e7576101cd565b806301ffc9a7146101d257806306fdde031461020f578063081812fc1461023a575b600080fd5b3480156101de57600080fd5b506101f960048036038101906101f491906131b3565b610753565b60405161020691906131fb565b60405180910390f35b34801561021b57600080fd5b50610224610835565b60405161023191906132af565b60405180910390f35b34801561024657600080fd5b50610261600480360381019061025c9190613307565b6108c7565b60405161026e9190613375565b60405180910390f35b34801561028357600080fd5b5061029e600480360381019061029991906133bc565b61094c565b005b3480156102ac57600080fd5b506102b5610a63565b6040516102c2919061340b565b60405180910390f35b6102e560048036038101906102e09190613426565b610a70565b005b3480156102f357600080fd5b5061030e60048036038101906103099190613466565b610bec565b005b61032a60048036038101906103259190613307565b610c4c565b005b34801561033857600080fd5b50610353600480360381019061034e91906133bc565b610db4565b604051610360919061340b565b60405180910390f35b34801561037557600080fd5b5061037e610e59565b60405161038b91906135ea565b60405180910390f35b3480156103a057600080fd5b506103bb60048036038101906103b69190613466565b610fec565b005b3480156103c957600080fd5b506103e460048036038101906103df9190613741565b61100c565b6040516103f191906131fb565b60405180910390f35b34801561040657600080fd5b50610421600480360381019061041c9190613307565b611048565b60405161042e919061340b565b60405180910390f35b34801561044357600080fd5b5061045e60048036038101906104599190613307565b6110b9565b60405161046b9190613375565b60405180910390f35b34801561048057600080fd5b5061049b60048036038101906104969190613307565b61116a565b6040516104a891906137df565b60405180910390f35b3480156104bd57600080fd5b506104d860048036038101906104d391906137fa565b61121c565b6040516104e5919061340b565b60405180910390f35b3480156104fa57600080fd5b506105036112d3565b60405161051091906135ea565b60405180910390f35b34801561052557600080fd5b5061052e611437565b005b34801561053c57600080fd5b5061055760048036038101906105529190613307565b6114bf565b005b34801561056557600080fd5b50610580600480360381019061057b9190613307565b6114cb565b005b34801561058e57600080fd5b50610597611594565b6040516105a49190613375565b60405180910390f35b3480156105b957600080fd5b506105c26115be565b6040516105cf91906132af565b60405180910390f35b3480156105e457600080fd5b506105ff60048036038101906105fa9190613853565b611650565b005b34801561060d57600080fd5b5061062860048036038101906106239190613934565b611666565b005b610644600480360381019061063f91906139b7565b6116c8565b604051610651919061340b565b60405180910390f35b34801561066657600080fd5b5061066f6117d8565b60405161067c919061340b565b60405180910390f35b34801561069157600080fd5b506106ac60048036038101906106a79190613307565b6117de565b6040516106b991906132af565b60405180910390f35b3480156106ce57600080fd5b506106d761192f565b6040516106e4919061340b565b60405180910390f35b3480156106f957600080fd5b50610714600480360381019061070f9190613a13565b611940565b60405161072191906131fb565b60405180910390f35b34801561073657600080fd5b50610751600480360381019061074c91906137fa565b6119d4565b005b60007f80ac58cd000000000000000000000000000000000000000000000000000000007bffffffffffffffffffffffffffffffffffffffffffffffffffffffff1916827bffffffffffffffffffffffffffffffffffffffffffffffffffffffff1916148061081e57507f5b5e139f000000000000000000000000000000000000000000000000000000007bffffffffffffffffffffffffffffffffffffffffffffffffffffffff1916827bffffffffffffffffffffffffffffffffffffffffffffffffffffffff1916145b8061082e575061082d82611acb565b5b9050919050565b60606000805461084490613a82565b80601f016020809104026020016040519081016040528092919081815260200182805461087090613a82565b80156108bd5780601f10610892576101008083540402835291602001916108bd565b820191906000526020600020905b8154815290600101906020018083116108a057829003601f168201915b5050505050905090565b60006108d282611b35565b610911576040517f08c379a000000000000000000000000000000000000000000000000000000000815260040161090890613b25565b60405180910390fd5b6004600083815260200190815260200160002060009054906101000a900473ffffffffffffffffffffffffffffffffffffffff169050919050565b6000610957826110b9565b90508073ffffffffffffffffffffffffffffffffffffffff168373ffffffffffffffffffffffffffffffffffffffff16036109c7576040517f08c379a00000000000000000000000000000000000000000000000000000000081526004016109be90613bb7565b60405180910390fd5b8073ffffffffffffffffffffffffffffffffffffffff166109e6611ba1565b73ffffffffffffffffffffffffffffffffffffffff161480610a155750610a1481610a0f611ba1565b611940565b5b610a54576040517f08c379a0000000000000000000000000000000000000000000000000000000008152600401610a4b90613c49565b60405180910390fd5b610a5e8383611ba9565b505050565b6000600a80549050905090565b3373ffffffffffffffffffffffffffffffffffffffff16610a90836110b9565b73ffffffffffffffffffffffffffffffffffffffff1614610ae6576040517f08c379a0000000000000000000000000000000000000000000000000000000008152600401610add90613cb5565b60405180910390fd5b600b543414610b2a576040517f08c379a0000000000000000000000000000000000000000000000000000000008152600401610b2190613d47565b60405180910390fd5b60001515600f600084815260200190815260200160002060020160149054906101000a900460ff16151514610b94576040517f08c379a0000000000000000000000000000000000000000000000000000000008152600401610b8b90613db3565b60405180910390fd5b6001600f600084815260200190815260200160002060020160146101000a81548160ff02191690831515021790555080600f600084815260200190815260200160002060010181905550610be86008611c62565b5050565b610bfd610bf7611ba1565b82611c78565b610c3c576040517f08c379a0000000000000000000000000000000000000000000000000000000008152600401610c3390613e45565b60405180910390fd5b610c47838383611d56565b505050565b6000600f60008381526020019081526020016000206001015490506000610c72836110b9565b90508073ffffffffffffffffffffffffffffffffffffffff163373ffffffffffffffffffffffffffffffffffffffff1603610ce2576040517f08c379a0000000000000000000000000000000000000000000000000000000008152600401610cd990613eb1565b60405180910390fd5b813414610d24576040517f08c379a0000000000000000000000000000000000000000000000000000000008152600401610d1b90613f1d565b60405180910390fd5b6000600f600085815260200190815260200160002060020160146101000a81548160ff021916908315150217905550610d5d6008611fbc565b610d68813385611d56565b8073ffffffffffffffffffffffffffffffffffffffff166108fc349081150290604051600060405180830381858888f19350505050158015610dae573d6000803e3d6000fd5b50505050565b6000610dbf8361121c565b8210610e00576040517f08c379a0000000000000000000000000000000000000000000000000000000008152600401610df790613f89565b60405180910390fd5b600c60008473ffffffffffffffffffffffffffffffffffffffff1673ffffffffffffffffffffffffffffffffffffffff168152602001908152602001600020600083815260200190815260200160002054905092915050565b60606000610e65610a63565b9050600080610e746008612018565b67ffffffffffffffff811115610e8d57610e8c613616565b5b604051908082528060200260200182016040528015610ec657816020015b610eb3613024565b815260200190600190039081610eab5790505b50905060005b83811015610fe2576000610edf82611048565b90506000600f600083815260200190815260200160002090508060020160149054906101000a900460ff1615610fcd578060405180608001604052908160008201548152602001600182015481526020016002820160009054906101000a900473ffffffffffffffffffffffffffffffffffffffff1673ffffffffffffffffffffffffffffffffffffffff1673ffffffffffffffffffffffffffffffffffffffff1681526020016002820160149054906101000a900460ff161515151581525050848681518110610fb357610fb2613fa9565b5b60200260200101819052508480610fc990614007565b9550505b50508080610fda90614007565b915050610ecc565b5080935050505090565b61100783838360405180602001604052806000815250611666565b505050565b600060011515600e83604051611022919061408b565b908152602001604051809103902060009054906101000a900460ff161515149050919050565b6000611052610a63565b8210611093576040517f08c379a000000000000000000000000000000000000000000000000000000000815260040161108a906140ee565b60405180910390fd5b600a82815481106110a7576110a6613fa9565b5b90600052602060002001549050919050565b6000806002600084815260200190815260200160002060009054906101000a900473ffffffffffffffffffffffffffffffffffffffff169050600073ffffffffffffffffffffffffffffffffffffffff168173ffffffffffffffffffffffffffffffffffffffff1603611161576040517f08c379a000000000000000000000000000000000000000000000000000000000815260040161115890614180565b60405180910390fd5b80915050919050565b611172613024565b600f600083815260200190815260200160002060405180608001604052908160008201548152602001600182015481526020016002820160009054906101000a900473ffffffffffffffffffffffffffffffffffffffff1673ffffffffffffffffffffffffffffffffffffffff1673ffffffffffffffffffffffffffffffffffffffff1681526020016002820160149054906101000a900460ff1615151515815250509050919050565b60008073ffffffffffffffffffffffffffffffffffffffff168273ffffffffffffffffffffffffffffffffffffffff160361128c576040517f08c379a000000000000000000000000000000000000000000000000000000000815260040161128390614212565b60405180910390fd5b600360008373ffffffffffffffffffffffffffffffffffffffff1673ffffffffffffffffffffffffffffffffffffffff168152602001908152602001600020549050919050565b606060006112e03361121c565b905060008167ffffffffffffffff8111156112fe576112fd613616565b5b60405190808252806020026020018201604052801561133757816020015b611324613024565b81526020019060019003908161131c5790505b50905060005b8281101561142e5760006113513383610db4565b90506000600f600083815260200190815260200160002090508060405180608001604052908160008201548152602001600182015481526020016002820160009054906101000a900473ffffffffffffffffffffffffffffffffffffffff1673ffffffffffffffffffffffffffffffffffffffff1673ffffffffffffffffffffffffffffffffffffffff1681526020016002820160149054906101000a900460ff16151515158152505084848151811061140e5761140d613fa9565b5b60200260200101819052505050808061142690614007565b91505061133d565b50809250505090565b61143f611ba1565b73ffffffffffffffffffffffffffffffffffffffff1661145d611594565b73ffffffffffffffffffffffffffffffffffffffff16146114b3576040517f08c379a00000000000000000000000000000000000000000000000000000000081526004016114aa9061427e565b60405180910390fd5b6114bd6000612026565b565b6114c8816120ec565b50565b6114d3611ba1565b73ffffffffffffffffffffffffffffffffffffffff166114f1611594565b73ffffffffffffffffffffffffffffffffffffffff1614611547576040517f08c379a000000000000000000000000000000000000000000000000000000000815260040161153e9061427e565b60405180910390fd5b6000811161158a576040517f08c379a0000000000000000000000000000000000000000000000000000000008152600401611581906142ea565b60405180910390fd5b80600b8190555050565b6000600760009054906101000a900473ffffffffffffffffffffffffffffffffffffffff16905090565b6060600180546115cd90613a82565b80601f01602080910402602001604051908101604052809291908181526020018280546115f990613a82565b80156116465780601f1061161b57610100808354040283529160200191611646565b820191906000526020600020905b81548152906001019060200180831161162957829003601f168201915b5050505050905090565b61166261165b611ba1565b838361213f565b5050565b611677611671611ba1565b83611c78565b6116b6576040517f08c379a00000000000000000000000000000000000000000000000000000000081526004016116ad90613e45565b60405180910390fd5b6116c2848484846122ab565b50505050565b60006116d38361100c565b15611713576040517f08c379a000000000000000000000000000000000000000000000000000000000815260040161170a90614356565b60405180910390fd5b600b543414611757576040517f08c379a000000000000000000000000000000000000000000000000000000000815260040161174e906143c2565b60405180910390fd5b6117616009611c62565b61176b6008611c62565b60006117776009612018565b90506117833382612307565b61178d8185612325565b6117978184612399565b6001600e856040516117a9919061408b565b908152602001604051809103902060006101000a81548160ff0219169083151502179055508091505092915050565b600b5481565b60606117e982611b35565b611828576040517f08c379a000000000000000000000000000000000000000000000000000000000815260040161181f90614454565b60405180910390fd5b600060066000848152602001908152602001600020805461184890613a82565b80601f016020809104026020016040519081016040528092919081815260200182805461187490613a82565b80156118c15780601f10611896576101008083540402835291602001916118c1565b820191906000526020600020905b8154815290600101906020018083116118a457829003601f168201915b5050505050905060006118d26124e9565b905060008151036118e757819250505061192a565b60008251111561191c578082604051602001611904929190614474565b6040516020818303038152906040529250505061192a565b61192584612500565b925050505b919050565b600061193b6008612018565b905090565b6000600560008473ffffffffffffffffffffffffffffffffffffffff1673ffffffffffffffffffffffffffffffffffffffff16815260200190815260200160002060008373ffffffffffffffffffffffffffffffffffffffff1673ffffffffffffffffffffffffffffffffffffffff16815260200190815260200160002060009054906101000a900460ff16905092915050565b6119dc611ba1565b73ffffffffffffffffffffffffffffffffffffffff166119fa611594565b73ffffffffffffffffffffffffffffffffffffffff1614611a50576040517f08c379a0000000000000000000000000000000000000000000000000000000008152600401611a479061427e565b60405180910390fd5b600073ffffffffffffffffffffffffffffffffffffffff168173ffffffffffffffffffffffffffffffffffffffff1603611abf576040517f08c379a0000000000000000000000000000000000000000000000000000000008152600401611ab69061450a565b60405180910390fd5b611ac881612026565b50565b60007f01ffc9a7000000000000000000000000000000000000000000000000000000007bffffffffffffffffffffffffffffffffffffffffffffffffffffffff1916827bffffffffffffffffffffffffffffffffffffffffffffffffffffffff1916149050919050565b60008073ffffffffffffffffffffffffffffffffffffffff166002600084815260200190815260200160002060009054906101000a900473ffffffffffffffffffffffffffffffffffffffff1673ffffffffffffffffffffffffffffffffffffffff1614159050919050565b600033905090565b816004600083815260200190815260200160002060006101000a81548173ffffffffffffffffffffffffffffffffffffffff021916908373ffffffffffffffffffffffffffffffffffffffff160217905550808273ffffffffffffffffffffffffffffffffffffffff16611c1c836110b9565b73ffffffffffffffffffffffffffffffffffffffff167f8c5be1e5ebec7d5bd14f71427d1e84f3dd0314c0f7b2291e5b200ac8c7c3b92560405160405180910390a45050565b6001816000016000828254019250508190555050565b6000611c8382611b35565b611cc2576040517f08c379a0000000000000000000000000000000000000000000000000000000008152600401611cb99061459c565b60405180910390fd5b6000611ccd836110b9565b90508073ffffffffffffffffffffffffffffffffffffffff168473ffffffffffffffffffffffffffffffffffffffff161480611d3c57508373ffffffffffffffffffffffffffffffffffffffff16611d24846108c7565b73ffffffffffffffffffffffffffffffffffffffff16145b80611d4d5750611d4c8185611940565b5b91505092915050565b8273ffffffffffffffffffffffffffffffffffffffff16611d76826110b9565b73ffffffffffffffffffffffffffffffffffffffff1614611dcc576040517f08c379a0000000000000000000000000000000000000000000000000000000008152600401611dc39061462e565b60405180910390fd5b600073ffffffffffffffffffffffffffffffffffffffff168273ffffffffffffffffffffffffffffffffffffffff1603611e3b576040517f08c379a0000000000000000000000000000000000000000000000000000000008152600401611e32906146c0565b60405180910390fd5b611e468383836125a7565b611e51600082611ba9565b6001600360008573ffffffffffffffffffffffffffffffffffffffff1673ffffffffffffffffffffffffffffffffffffffff1681526020019081526020016000206000828254611ea191906146e0565b925050819055506001600360008473ffffffffffffffffffffffffffffffffffffffff1673ffffffffffffffffffffffffffffffffffffffff1681526020019081526020016000206000828254611ef89190614714565b92505081905550816002600083815260200190815260200160002060006101000a81548173ffffffffffffffffffffffffffffffffffffffff021916908373ffffffffffffffffffffffffffffffffffffffff160217905550808273ffffffffffffffffffffffffffffffffffffffff168473ffffffffffffffffffffffffffffffffffffffff167fddf252ad1be2c89b69c2b068fc378daa952ba7f163c4a11628f55a4df523b3ef60405160405180910390a4611fb78383836126b9565b505050565b60008160000154905060008111612008576040517f08c379a0000000000000000000000000000000000000000000000000000000008152600401611fff906147b6565b60405180910390fd5b6001810382600001819055505050565b600081600001549050919050565b6000600760009054906101000a900473ffffffffffffffffffffffffffffffffffffffff16905081600760006101000a81548173ffffffffffffffffffffffffffffffffffffffff021916908373ffffffffffffffffffffffffffffffffffffffff1602179055508173ffffffffffffffffffffffffffffffffffffffff168173ffffffffffffffffffffffffffffffffffffffff167f8be0079c531659141344cd1fd0a4f28419497f9722a3daafe3b4186f6b6457e060405160405180910390a35050565b6120f5816126be565b600060066000838152602001908152602001600020805461211590613a82565b90501461213c5760066000828152602001908152602001600020600061213b9190613064565b5b50565b8173ffffffffffffffffffffffffffffffffffffffff168373ffffffffffffffffffffffffffffffffffffffff16036121ad576040517f08c379a00000000000000000000000000000000000000000000000000000000081526004016121a490614822565b60405180910390fd5b80600560008573ffffffffffffffffffffffffffffffffffffffff1673ffffffffffffffffffffffffffffffffffffffff16815260200190815260200160002060008473ffffffffffffffffffffffffffffffffffffffff1673ffffffffffffffffffffffffffffffffffffffff16815260200190815260200160002060006101000a81548160ff0219169083151502179055508173ffffffffffffffffffffffffffffffffffffffff168373ffffffffffffffffffffffffffffffffffffffff167f17307eab39ab6107e8899845ad3d59bd9653f200f220920489ca2b5937696c318360405161229e91906131fb565b60405180910390a3505050565b6122b6848484611d56565b6122c2848484846127db565b612301576040517f08c379a00000000000000000000000000000000000000000000000000000000081526004016122f8906148b4565b60405180910390fd5b50505050565b612321828260405180602001604052806000815250612962565b5050565b61232e82611b35565b61236d576040517f08c379a000000000000000000000000000000000000000000000000000000000815260040161236490614946565b60405180910390fd5b806006600084815260200190815260200160002090805190602001906123949291906130a4565b505050565b600081116123dc576040517f08c379a00000000000000000000000000000000000000000000000000000000081526004016123d3906149b2565b60405180910390fd5b60405180608001604052808381526020018281526020013373ffffffffffffffffffffffffffffffffffffffff16815260200160011515815250600f6000848152602001908152602001600020600082015181600001556020820151816001015560408201518160020160006101000a81548173ffffffffffffffffffffffffffffffffffffffff021916908373ffffffffffffffffffffffffffffffffffffffff16021790555060608201518160020160146101000a81548160ff0219169083151502179055509050507f470031062672bc0246e132c723a729c4676710ec663a29e86c88678032daddea82823360016040516124dd94939291906149d2565b60405180910390a15050565b606060405180602001604052806000815250905090565b606061250b82611b35565b61254a576040517f08c379a000000000000000000000000000000000000000000000000000000000815260040161254190614a89565b60405180910390fd5b60006125546124e9565b90506000815111612574576040518060200160405280600081525061259f565b8061257e846129bd565b60405160200161258f929190614474565b6040516020818303038152906040525b915050919050565b6125b2838383612b1d565b600073ffffffffffffffffffffffffffffffffffffffff168373ffffffffffffffffffffffffffffffffffffffff16036125f4576125ef81612b22565b612633565b8173ffffffffffffffffffffffffffffffffffffffff168373ffffffffffffffffffffffffffffffffffffffff1614612632576126318382612b6b565b5b5b600073ffffffffffffffffffffffffffffffffffffffff168273ffffffffffffffffffffffffffffffffffffffff16036126755761267081612cd8565b6126b4565b8273ffffffffffffffffffffffffffffffffffffffff168273ffffffffffffffffffffffffffffffffffffffff16146126b3576126b28282612da9565b5b5b505050565b505050565b60006126c9826110b9565b90506126d7816000846125a7565b6126e2600083611ba9565b6001600360008373ffffffffffffffffffffffffffffffffffffffff1673ffffffffffffffffffffffffffffffffffffffff168152602001908152602001600020600082825461273291906146e0565b925050819055506002600083815260200190815260200160002060006101000a81549073ffffffffffffffffffffffffffffffffffffffff021916905581600073ffffffffffffffffffffffffffffffffffffffff168273ffffffffffffffffffffffffffffffffffffffff167fddf252ad1be2c89b69c2b068fc378daa952ba7f163c4a11628f55a4df523b3ef60405160405180910390a46127d7816000846126b9565b5050565b60006127fc8473ffffffffffffffffffffffffffffffffffffffff16612e28565b15612955578373ffffffffffffffffffffffffffffffffffffffff1663150b7a02612825611ba1565b8786866040518563ffffffff1660e01b81526004016128479493929190614afe565b6020604051808303816000875af192505050801561288357506040513d601f19601f820116820180604052508101906128809190614b5f565b60015b612905573d80600081146128b3576040519150601f19603f3d011682016040523d82523d6000602084013e6128b8565b606091505b5060008151036128fd576040517f08c379a00000000000000000000000000000000000000000000000000000000081526004016128f4906148b4565b60405180910390fd5b805181602001fd5b63150b7a0260e01b7bffffffffffffffffffffffffffffffffffffffffffffffffffffffff1916817bffffffffffffffffffffffffffffffffffffffffffffffffffffffff19161491505061295a565b600190505b949350505050565b61296c8383612e4b565b61297960008484846127db565b6129b8576040517f08c379a00000000000000000000000000000000000000000000000000000000081526004016129af906148b4565b60405180910390fd5b505050565b606060008203612a04576040518060400160405280600181526020017f30000000000000000000000000000000000000000000000000000000000000008152509050612b18565b600082905060005b60008214612a36578080612a1f90614007565b915050600a82612a2f9190614bbb565b9150612a0c565b60008167ffffffffffffffff811115612a5257612a51613616565b5b6040519080825280601f01601f191660200182016040528015612a845781602001600182028036833780820191505090505b5090505b60008514612b1157600182612a9d91906146e0565b9150600a85612aac9190614bec565b6030612ab89190614714565b60f81b818381518110612ace57612acd613fa9565b5b60200101907effffffffffffffffffffffffffffffffffffffffffffffffffffffffffffff1916908160001a905350600a85612b0a9190614bbb565b9450612a88565b8093505050505b919050565b505050565b600a805490506010600083815260200190815260200160002081905550600a81908060018154018082558091505060019003906000526020600020016000909190919091505550565b60006001612b788461121c565b612b8291906146e0565b90506000600d6000848152602001908152602001600020549050818114612c67576000600c60008673ffffffffffffffffffffffffffffffffffffffff1673ffffffffffffffffffffffffffffffffffffffff168152602001908152602001600020600084815260200190815260200160002054905080600c60008773ffffffffffffffffffffffffffffffffffffffff1673ffffffffffffffffffffffffffffffffffffffff16815260200190815260200160002060008481526020019081526020016000208190555081600d600083815260200190815260200160002081905550505b600d600084815260200190815260200160002060009055600c60008573ffffffffffffffffffffffffffffffffffffffff1673ffffffffffffffffffffffffffffffffffffffff16815260200190815260200160002060008381526020019081526020016000206000905550505050565b60006001600a80549050612cec91906146e0565b90506000601060008481526020019081526020016000205490506000600a8381548110612d1c57612d1b613fa9565b5b9060005260206000200154905080600a8381548110612d3e57612d3d613fa9565b5b9060005260206000200181905550816010600083815260200190815260200160002081905550600a805480612d7657612d75614c1d565b5b60019003818190600052602060002001600090559055601060008581526020019081526020016000206000905550505050565b6000612db48361121c565b905081600c60008573ffffffffffffffffffffffffffffffffffffffff1673ffffffffffffffffffffffffffffffffffffffff16815260200190815260200160002060008381526020019081526020016000208190555080600d600084815260200190815260200160002081905550505050565b6000808273ffffffffffffffffffffffffffffffffffffffff163b119050919050565b600073ffffffffffffffffffffffffffffffffffffffff168273ffffffffffffffffffffffffffffffffffffffff1603612eba576040517f08c379a0000000000000000000000000000000000000000000000000000000008152600401612eb190614c98565b60405180910390fd5b612ec381611b35565b15612f03576040517f08c379a0000000000000000000000000000000000000000000000000000000008152600401612efa90614d04565b60405180910390fd5b612f0f600083836125a7565b6001600360008473ffffffffffffffffffffffffffffffffffffffff1673ffffffffffffffffffffffffffffffffffffffff1681526020019081526020016000206000828254612f5f9190614714565b92505081905550816002600083815260200190815260200160002060006101000a81548173ffffffffffffffffffffffffffffffffffffffff021916908373ffffffffffffffffffffffffffffffffffffffff160217905550808273ffffffffffffffffffffffffffffffffffffffff16600073ffffffffffffffffffffffffffffffffffffffff167fddf252ad1be2c89b69c2b068fc378daa952ba7f163c4a11628f55a4df523b3ef60405160405180910390a4613020600083836126b9565b5050565b60405180608001604052806000815260200160008152602001600073ffffffffffffffffffffffffffffffffffffffff1681526020016000151581525090565b50805461307090613a82565b6000825580601f1061308257506130a1565b601f0160209004906000526020600020908101906130a0919061312a565b5b50565b8280546130b090613a82565b90600052602060002090601f0160209004810192826130d25760008555613119565b82601f106130eb57805160ff1916838001178555613119565b82800160010185558215613119579182015b828111156131185782518255916020019190600101906130fd565b5b509050613126919061312a565b5090565b5b8082111561314357600081600090555060010161312b565b5090565b6000604051905090565b600080fd5b600080fd5b60007fffffffff0000000000000000000000000000000000000000000000000000000082169050919050565b6131908161315b565b811461319b57600080fd5b50565b6000813590506131ad81613187565b92915050565b6000602082840312156131c9576131c8613151565b5b60006131d78482850161319e565b91505092915050565b60008115159050919050565b6131f5816131e0565b82525050565b600060208201905061321060008301846131ec565b92915050565b600081519050919050565b600082825260208201905092915050565b60005b83811015613250578082015181840152602081019050613235565b8381111561325f576000848401525b50505050565b6000601f19601f8301169050919050565b600061328182613216565b61328b8185613221565b935061329b818560208601613232565b6132a481613265565b840191505092915050565b600060208201905081810360008301526132c98184613276565b905092915050565b6000819050919050565b6132e4816132d1565b81146132ef57600080fd5b50565b600081359050613301816132db565b92915050565b60006020828403121561331d5761331c613151565b5b600061332b848285016132f2565b91505092915050565b600073ffffffffffffffffffffffffffffffffffffffff82169050919050565b600061335f82613334565b9050919050565b61336f81613354565b82525050565b600060208201905061338a6000830184613366565b92915050565b61339981613354565b81146133a457600080fd5b50565b6000813590506133b681613390565b92915050565b600080604083850312156133d3576133d2613151565b5b60006133e1858286016133a7565b92505060206133f2858286016132f2565b9150509250929050565b613405816132d1565b82525050565b600060208201905061342060008301846133fc565b92915050565b6000806040838503121561343d5761343c613151565b5b600061344b858286016132f2565b925050602061345c858286016132f2565b9150509250929050565b60008060006060848603121561347f5761347e613151565b5b600061348d868287016133a7565b935050602061349e868287016133a7565b92505060406134af868287016132f2565b9150509250925092565b600081519050919050565b600082825260208201905092915050565b6000819050602082019050919050565b6134ee816132d1565b82525050565b6134fd81613354565b82525050565b61350c816131e0565b82525050565b60808201600082015161352860008501826134e5565b50602082015161353b60208501826134e5565b50604082015161354e60408501826134f4565b5060608201516135616060850182613503565b50505050565b60006135738383613512565b60808301905092915050565b6000602082019050919050565b6000613597826134b9565b6135a181856134c4565b93506135ac836134d5565b8060005b838110156135dd5781516135c48882613567565b97506135cf8361357f565b9250506001810190506135b0565b5085935050505092915050565b60006020820190508181036000830152613604818461358c565b905092915050565b600080fd5b600080fd5b7f4e487b7100000000000000000000000000000000000000000000000000000000600052604160045260246000fd5b61364e82613265565b810181811067ffffffffffffffff8211171561366d5761366c613616565b5b80604052505050565b6000613680613147565b905061368c8282613645565b919050565b600067ffffffffffffffff8211156136ac576136ab613616565b5b6136b582613265565b9050602081019050919050565b82818337600083830152505050565b60006136e46136df84613691565b613676565b905082815260208101848484011115613700576136ff613611565b5b61370b8482856136c2565b509392505050565b600082601f8301126137285761372761360c565b5b81356137388482602086016136d1565b91505092915050565b60006020828403121561375757613756613151565b5b600082013567ffffffffffffffff81111561377557613774613156565b5b61378184828501613713565b91505092915050565b6080820160008201516137a060008501826134e5565b5060208201516137b360208501826134e5565b5060408201516137c660408501826134f4565b5060608201516137d96060850182613503565b50505050565b60006080820190506137f4600083018461378a565b92915050565b6000602082840312156138105761380f613151565b5b600061381e848285016133a7565b91505092915050565b613830816131e0565b811461383b57600080fd5b50565b60008135905061384d81613827565b92915050565b6000806040838503121561386a57613869613151565b5b6000613878858286016133a7565b92505060206138898582860161383e565b9150509250929050565b600067ffffffffffffffff8211156138ae576138ad613616565b5b6138b782613265565b9050602081019050919050565b60006138d76138d284613893565b613676565b9050828152602081018484840111156138f3576138f2613611565b5b6138fe8482856136c2565b509392505050565b600082601f83011261391b5761391a61360c565b5b813561392b8482602086016138c4565b91505092915050565b6000806000806080858703121561394e5761394d613151565b5b600061395c878288016133a7565b945050602061396d878288016133a7565b935050604061397e878288016132f2565b925050606085013567ffffffffffffffff81111561399f5761399e613156565b5b6139ab87828801613906565b91505092959194509250565b600080604083850312156139ce576139cd613151565b5b600083013567ffffffffffffffff8111156139ec576139eb613156565b5b6139f885828601613713565b9250506020613a09858286016132f2565b9150509250929050565b60008060408385031215613a2a57613a29613151565b5b6000613a38858286016133a7565b9250506020613a49858286016133a7565b9150509250929050565b7f4e487b7100000000000000000000000000000000000000000000000000000000600052602260045260246000fd5b60006002820490506001821680613a9a57607f821691505b602082108103613aad57613aac613a53565b5b50919050565b7f4552433732313a20617070726f76656420717565727920666f72206e6f6e657860008201527f697374656e7420746f6b656e0000000000000000000000000000000000000000602082015250565b6000613b0f602c83613221565b9150613b1a82613ab3565b604082019050919050565b60006020820190508181036000830152613b3e81613b02565b9050919050565b7f4552433732313a20617070726f76616c20746f2063757272656e74206f776e6560008201527f7200000000000000000000000000000000000000000000000000000000000000602082015250565b6000613ba1602183613221565b9150613bac82613b45565b604082019050919050565b60006020820190508181036000830152613bd081613b94565b9050919050565b7f4552433732313a20617070726f76652063616c6c6572206973206e6f74206f7760008201527f6e6572206e6f7220617070726f76656420666f7220616c6c0000000000000000602082015250565b6000613c33603883613221565b9150613c3e82613bd7565b604082019050919050565b60006020820190508181036000830152613c6281613c26565b9050919050565b7f796f7520617265206e6f74206f776e6572206f662074686973204e4654000000600082015250565b6000613c9f601d83613221565b9150613caa82613c69565b602082019050919050565b60006020820190508181036000830152613cce81613c92565b9050919050565b7f7072696365206d75737420626520657175616c20746f206c697374696e67207060008201527f7269636500000000000000000000000000000000000000000000000000000000602082015250565b6000613d31602483613221565b9150613d3c82613cd5565b604082019050919050565b60006020820190508181036000830152613d6081613d24565b9050919050565b7f6974656d20697320616c7265616479206f6e2073616c65000000000000000000600082015250565b6000613d9d601783613221565b9150613da882613d67565b602082019050919050565b60006020820190508181036000830152613dcc81613d90565b9050919050565b7f4552433732313a207472616e736665722063616c6c6572206973206e6f74206f60008201527f776e6572206e6f7220617070726f766564000000000000000000000000000000602082015250565b6000613e2f603183613221565b9150613e3a82613dd3565b604082019050919050565b60006020820190508181036000830152613e5e81613e22565b9050919050565b7f796f7520616c7265616479206f776e2074686973204e46540000000000000000600082015250565b6000613e9b601883613221565b9150613ea682613e65565b602082019050919050565b60006020820190508181036000830152613eca81613e8e565b9050919050565b7f706c65617365207375626d6974207468652061736b696e672070726963650000600082015250565b6000613f07601e83613221565b9150613f1282613ed1565b602082019050919050565b60006020820190508181036000830152613f3681613efa565b9050919050565b7f696e646578206973206f7574206f6620626f756e647300000000000000000000600082015250565b6000613f73601683613221565b9150613f7e82613f3d565b602082019050919050565b60006020820190508181036000830152613fa281613f66565b9050919050565b7f4e487b7100000000000000000000000000000000000000000000000000000000600052603260045260246000fd5b7f4e487b7100000000000000000000000000000000000000000000000000000000600052601160045260246000fd5b6000614012826132d1565b91507fffffffffffffffffffffffffffffffffffffffffffffffffffffffffffffffff820361404457614043613fd8565b5b600182019050919050565b600081905092915050565b600061406582613216565b61406f818561404f565b935061407f818560208601613232565b80840191505092915050565b6000614097828461405a565b915081905092915050565b7f496e646578206f7574206f6620626f756e647300000000000000000000000000600082015250565b60006140d8601383613221565b91506140e3826140a2565b602082019050919050565b60006020820190508181036000830152614107816140cb565b9050919050565b7f4552433732313a206f776e657220717565727920666f72206e6f6e657869737460008201527f656e7420746f6b656e0000000000000000000000000000000000000000000000602082015250565b600061416a602983613221565b91506141758261410e565b604082019050919050565b600060208201905081810360008301526141998161415d565b9050919050565b7f4552433732313a2062616c616e636520717565727920666f7220746865207a6560008201527f726f206164647265737300000000000000000000000000000000000000000000602082015250565b60006141fc602a83613221565b9150614207826141a0565b604082019050919050565b6000602082019050818103600083015261422b816141ef565b9050919050565b7f4f776e61626c653a2063616c6c6572206973206e6f7420746865206f776e6572600082015250565b6000614268602083613221565b915061427382614232565b602082019050919050565b600060208201905081810360008301526142978161425b565b9050919050565b7f5072696365206d757374206265206174206c6561737420312077656900000000600082015250565b60006142d4601c83613221565b91506142df8261429e565b602082019050919050565b60006020820190508181036000830152614303816142c7565b9050919050565b7f546f6b656e2055524920616c7265616479206578697374000000000000000000600082015250565b6000614340601783613221565b915061434b8261430a565b602082019050919050565b6000602082019050818103600083015261436f81614333565b9050919050565b7f707269636520697320657175616c20746f206c697374696e6720707269636500600082015250565b60006143ac601f83613221565b91506143b782614376565b602082019050919050565b600060208201905081810360008301526143db8161439f565b9050919050565b7f45524337323155524953746f726167653a2055524920717565727920666f722060008201527f6e6f6e6578697374656e7420746f6b656e000000000000000000000000000000602082015250565b600061443e603183613221565b9150614449826143e2565b604082019050919050565b6000602082019050818103600083015261446d81614431565b9050919050565b6000614480828561405a565b915061448c828461405a565b91508190509392505050565b7f4f776e61626c653a206e6577206f776e657220697320746865207a65726f206160008201527f6464726573730000000000000000000000000000000000000000000000000000602082015250565b60006144f4602683613221565b91506144ff82614498565b604082019050919050565b60006020820190508181036000830152614523816144e7565b9050919050565b7f4552433732313a206f70657261746f7220717565727920666f72206e6f6e657860008201527f697374656e7420746f6b656e0000000000000000000000000000000000000000602082015250565b6000614586602c83613221565b91506145918261452a565b604082019050919050565b600060208201905081810360008301526145b581614579565b9050919050565b7f4552433732313a207472616e736665722066726f6d20696e636f72726563742060008201527f6f776e6572000000000000000000000000000000000000000000000000000000602082015250565b6000614618602583613221565b9150614623826145bc565b604082019050919050565b600060208201905081810360008301526146478161460b565b9050919050565b7f4552433732313a207472616e7366657220746f20746865207a65726f2061646460008201527f7265737300000000000000000000000000000000000000000000000000000000602082015250565b60006146aa602483613221565b91506146b58261464e565b604082019050919050565b600060208201905081810360008301526146d98161469d565b9050919050565b60006146eb826132d1565b91506146f6836132d1565b92508282101561470957614708613fd8565b5b828203905092915050565b600061471f826132d1565b915061472a836132d1565b9250827fffffffffffffffffffffffffffffffffffffffffffffffffffffffffffffffff0382111561475f5761475e613fd8565b5b828201905092915050565b7f436f756e7465723a2064656372656d656e74206f766572666c6f770000000000600082015250565b60006147a0601b83613221565b91506147ab8261476a565b602082019050919050565b600060208201905081810360008301526147cf81614793565b9050919050565b7f4552433732313a20617070726f766520746f2063616c6c657200000000000000600082015250565b600061480c601983613221565b9150614817826147d6565b602082019050919050565b6000602082019050818103600083015261483b816147ff565b9050919050565b7f4552433732313a207472616e7366657220746f206e6f6e20455243373231526560008201527f63656976657220696d706c656d656e7465720000000000000000000000000000602082015250565b600061489e603283613221565b91506148a982614842565b604082019050919050565b600060208201905081810360008301526148cd81614891565b9050919050565b7f45524337323155524953746f726167653a2055524920736574206f66206e6f6e60008201527f6578697374656e7420746f6b656e000000000000000000000000000000000000602082015250565b6000614930602e83613221565b915061493b826148d4565b604082019050919050565b6000602082019050818103600083015261495f81614923565b9050919050565b7f7072696365206d757374206265206174206c6561737420312077656900000000600082015250565b600061499c601c83613221565b91506149a782614966565b602082019050919050565b600060208201905081810360008301526149cb8161498f565b9050919050565b60006080820190506149e760008301876133fc565b6149f460208301866133fc565b614a016040830185613366565b614a0e60608301846131ec565b95945050505050565b7f4552433732314d657461646174613a2055524920717565727920666f72206e6f60008201527f6e6578697374656e7420746f6b656e0000000000000000000000000000000000602082015250565b6000614a73602f83613221565b9150614a7e82614a17565b604082019050919050565b60006020820190508181036000830152614aa281614a66565b9050919050565b600081519050919050565b600082825260208201905092915050565b6000614ad082614aa9565b614ada8185614ab4565b9350614aea818560208601613232565b614af381613265565b840191505092915050565b6000608082019050614b136000830187613366565b614b206020830186613366565b614b2d60408301856133fc565b8181036060830152614b3f8184614ac5565b905095945050505050565b600081519050614b5981613187565b92915050565b600060208284031215614b7557614b74613151565b5b6000614b8384828501614b4a565b91505092915050565b7f4e487b7100000000000000000000000000000000000000000000000000000000600052601260045260246000fd5b6000614bc6826132d1565b9150614bd1836132d1565b925082614be157614be0614b8c565b5b828204905092915050565b6000614bf7826132d1565b9150614c02836132d1565b925082614c1257614c11614b8c565b5b828206905092915050565b7f4e487b7100000000000000000000000000000000000000000000000000000000600052603160045260246000fd5b7f4552433732313a206d696e7420746f20746865207a65726f2061646472657373600082015250565b6000614c82602083613221565b9150614c8d82614c4c565b602082019050919050565b60006020820190508181036000830152614cb181614c75565b9050919050565b7f4552433732313a20746f6b656e20616c7265616479206d696e74656400000000600082015250565b6000614cee601c83613221565b9150614cf982614cb8565b602082019050919050565b60006020820190508181036000830152614d1d81614ce1565b905091905056fea2646970667358221220e3a36c5e62aecae458721f77acc9883f23a9eb0a0062aa1cc195cc9f3b7906b564736f6c634300080d0033",
  "immutableReferences": {},
  "source": "// SPDX-License-Identifier: MIT\r\npragma solidity >=0.4.22 <0.9.0;\r\n\r\nimport \"@openzeppelin/contracts/token/ERC721/extensions/ERC721URIStorage.sol\";\r\nimport \"@openzeppelin/contracts/utils/Counters.sol\";\r\nimport \"@openzeppelin/contracts/access/Ownable.sol\";\r\n\r\ncontract NftMarket is ERC721URIStorage , Ownable{\r\n    \r\n    using Counters for Counters.Counter;\r\n\r\n    Counters.Counter private _listedItems;\r\n    Counters.Counter private _tokenIds;\r\n\r\n\r\n    struct NftItem {\r\n        uint tokenId;\r\n        uint price;\r\n        address creator;\r\n        bool isListed;\r\n    }\r\n\r\n    uint256[] _allNfts ; \r\n\r\n    uint public listingPrice  = 0.025 ether;\r\n    \r\n    mapping (address => mapping (uint => uint)) private _ownedTokens;\r\n\r\n    mapping (uint => uint) private _idToOwnedIndex;\r\n\r\n\r\n    mapping (string => bool) private _usedTokenURI;\r\n\r\n    mapping (uint => NftItem) private _idToNftItem;\r\n\r\n    mapping(uint => uint) private _idToNftIndex;\r\n\r\n    event NftItemCreated(\r\n        uint tokenId,\r\n        uint price,\r\n        address creator,\r\n        bool isListed\r\n    );\r\n\r\n    constructor() ERC721(\"CreaturesNFT\",\"CNFT\") {}\r\n\r\n\r\n\r\n\r\n    function totalSupply() public view returns (uint) {\r\n        return _allNfts.length;\r\n    }\r\n\r\n    function tokenByIndex(uint index) public view returns (uint) {\r\n    require(index < totalSupply(), \"Index out of bounds\");\r\n    return _allNfts[index];\r\n  }\r\n\r\n    function burnToken(uint tokenId) public {\r\n        _burn(tokenId);\r\n    }\r\n\r\n    function setListingPrice(uint newPrice) external onlyOwner{\r\n        require(newPrice > 0, \"Price must be at least 1 wei\");\r\n        listingPrice = newPrice;\r\n    }\r\n\r\n    function getNftItem(uint tokenId) public view returns(NftItem memory){\r\n        return _idToNftItem[tokenId];\r\n    }\r\n\r\n\r\n    function listedItemsCount() public view returns(uint) {\r\n        return _listedItems.current();\r\n    }\r\n\r\n    function tokenURIExists(string memory tokenURI) public view returns (bool) {\r\n        return _usedTokenURI[tokenURI] == true;\r\n    }\r\n\r\n\r\n    function tokenOfOwnerByIndex(address owner, uint index) public view returns (uint){\r\n        require(index < balanceOf(owner), \"index is out of bounds\");\r\n        return _ownedTokens[owner][index];\r\n\r\n\r\n    }\r\n\r\n    function placeNftOnSale(uint tokenId, uint newPrice) public payable{\r\n        require(ownerOf(tokenId) == msg.sender , \"you are not owner of this NFT\");\r\n        require(msg.value == listingPrice , \"price must be equal to listing price\");\r\n        require(_idToNftItem[tokenId].isListed == false , \"item is already on sale\");\r\n\r\n        _idToNftItem[tokenId].isListed = true;\r\n        _idToNftItem[tokenId].price = newPrice;\r\n        _listedItems.increment();\r\n\r\n    }\r\n\r\n    function getOwnedNfts() public view returns (NftItem[] memory){\r\n        uint ownedItemsCount = ERC721.balanceOf(msg.sender);\r\n        NftItem[] memory items = new NftItem[](ownedItemsCount);\r\n        \r\n        for (uint i = 0 ; i< ownedItemsCount ; i++){\r\n            uint tokenId = tokenOfOwnerByIndex(msg.sender, i);\r\n            NftItem storage item = _idToNftItem[tokenId];\r\n            items[i] = item;\r\n        }\r\n\r\n        return items;\r\n    }\r\n    function getAllNftsOnSale() public view returns (NftItem[] memory){\r\n        uint allItemsCounts = totalSupply();\r\n        uint index = 0 ;\r\n        NftItem[] memory items = new NftItem[] (_listedItems.current());\r\n\r\n        for (uint i = 0 ; i< allItemsCounts; i++){\r\n            uint tokenId = tokenByIndex(i);\r\n            NftItem storage item = _idToNftItem[tokenId];\r\n            if(item.isListed) {\r\n                items[index] = item;\r\n                index++;\r\n            }\r\n        }\r\n\r\n        return items;\r\n    }\r\n\r\n\r\n    function buyNft(uint tokenId) public payable {\r\n\r\n            uint price = _idToNftItem[tokenId].price;\r\n            address owner = ownerOf(tokenId);\r\n            \r\n            require(msg.sender != owner , \"you already own this NFT\");\r\n            require(msg.value == price,\"please submit the asking price\");\r\n\r\n            _idToNftItem[tokenId].isListed = false;\r\n            _listedItems.decrement();\r\n\r\n            _transfer(owner, msg.sender, tokenId);\r\n            payable(owner).transfer(msg.value);\r\n\r\n\r\n    }\r\n\r\n\r\n    function mintToken(string memory tokenURI, uint price) public payable returns (uint){\r\n        require(!tokenURIExists(tokenURI),\"Token URI already exist\");\r\n        require(msg.value == listingPrice , \"price is equal to listing price\");\r\n\r\n\r\n        _tokenIds.increment();\r\n        _listedItems.increment();\r\n\r\n        uint newTokenId = _tokenIds.current();\r\n\r\n        _safeMint(msg.sender, newTokenId);\r\n        _setTokenURI(newTokenId, tokenURI);\r\n\r\n        _createNftItem(newTokenId,price);\r\n\r\n        _usedTokenURI[tokenURI] = true;\r\n        \r\n        return newTokenId;\r\n    }\r\n    \r\n    function _createNftItem(uint tokenId, uint price) private {\r\n        require(price > 0 , \"price must be at least 1 wei\");\r\n\r\n        _idToNftItem[tokenId] = NftItem(\r\n            tokenId,\r\n            price,\r\n            msg.sender,\r\n            true\r\n        );\r\n\r\n        emit NftItemCreated(tokenId, price, msg.sender, true);\r\n    }\r\n\r\n    function _beforeTokenTransfer(\r\n        address from,\r\n        address to,\r\n        uint tokenId\r\n    ) internal virtual override {\r\n        super._beforeTokenTransfer(from,to,tokenId);\r\n\r\n        if (from == address(0)) {\r\n            _addTokenToAllTokensEnumeration(tokenId);\r\n        } else if (from != to ){\r\n            _removeTokenFromOwnerEnumeration(from,tokenId);\r\n        }\r\n\r\n        if (to == address(0)) {\r\n            _removeTokenFromAllTokensEnumeration(tokenId);\r\n        } else if (to != from) {\r\n            _addTokenToOwnerEnumeration(to, tokenId);\r\n        }\r\n\r\n    }\r\n\r\n    function _addTokenToAllTokensEnumeration(uint tokenId) private {\r\n        _idToNftIndex[tokenId] = _allNfts.length;\r\n        _allNfts.push(tokenId);\r\n    }\r\n\r\n    function _addTokenToOwnerEnumeration(address to, uint tokenId) private {\r\n        uint length = balanceOf(to);\r\n        _ownedTokens[to][length] = tokenId;\r\n        _idToOwnedIndex[tokenId] = length;\r\n    }\r\n    \r\n    function _removeTokenFromOwnerEnumeration(address from, uint tokenId) private {\r\n            uint lastTokenIndex = balanceOf(from) - 1 ;\r\n            uint tokenIndex = _idToOwnedIndex[tokenId];\r\n            if (tokenIndex != lastTokenIndex){\r\n                uint lastTokenId = _ownedTokens[from][lastTokenIndex];\r\n                _ownedTokens[from][tokenIndex] = lastTokenId;\r\n                _idToOwnedIndex[lastTokenId] = tokenIndex ;\r\n            }\r\n\r\n            delete _idToOwnedIndex[tokenId];\r\n            delete _ownedTokens[from][lastTokenIndex];\r\n\r\n    }\r\n    function _removeTokenFromAllTokensEnumeration(uint tokenId) private {\r\n            uint lastTokenIndex = _allNfts.length - 1;\r\n            uint tokenIndex = _idToNftIndex[tokenId];\r\n            uint lastTokenid =  _allNfts[lastTokenIndex] ;\r\n    \r\n            _allNfts[tokenIndex] = lastTokenid ;\r\n            _idToNftIndex[lastTokenid]  = tokenIndex;\r\n      \r\n            _allNfts.pop();\r\n\r\n            delete _idToNftIndex[tokenId];\r\n    }\r\n\r\n}",
  "sourcePath": "D:\\blockchain\\nft-marketplace\\contracts\\NftMarket.sol",
  "compiler": {
    "name": "solc",
    "version": "0.8.13+commit.abaa5c0e.Emscripten.clang"
  },
  "schemaVersion": "3.4.16",
  "updatedAt": "2024-08-20T03:06:20.638Z",
  "networkType": "ethereum",
  "devdoc": {
    "kind": "dev",
    "methods": {
      "approve(address,uint256)": {
        "details": "See {IERC721-approve}."
      },
      "balanceOf(address)": {
        "details": "See {IERC721-balanceOf}."
      },
      "getApproved(uint256)": {
        "details": "See {IERC721-getApproved}."
      },
      "isApprovedForAll(address,address)": {
        "details": "See {IERC721-isApprovedForAll}."
      },
      "name()": {
        "details": "See {IERC721Metadata-name}."
      },
      "owner()": {
        "details": "Returns the address of the current owner."
      },
      "ownerOf(uint256)": {
        "details": "See {IERC721-ownerOf}."
      },
      "renounceOwnership()": {
        "details": "Leaves the contract without owner. It will not be possible to call `onlyOwner` functions anymore. Can only be called by the current owner. NOTE: Renouncing ownership will leave the contract without an owner, thereby removing any functionality that is only available to the owner."
      },
      "safeTransferFrom(address,address,uint256)": {
        "details": "See {IERC721-safeTransferFrom}."
      },
      "safeTransferFrom(address,address,uint256,bytes)": {
        "details": "See {IERC721-safeTransferFrom}."
      },
      "setApprovalForAll(address,bool)": {
        "details": "See {IERC721-setApprovalForAll}."
      },
      "supportsInterface(bytes4)": {
        "details": "See {IERC165-supportsInterface}."
      },
      "symbol()": {
        "details": "See {IERC721Metadata-symbol}."
      },
      "tokenURI(uint256)": {
        "details": "See {IERC721Metadata-tokenURI}."
      },
      "transferFrom(address,address,uint256)": {
        "details": "See {IERC721-transferFrom}."
      },
      "transferOwnership(address)": {
        "details": "Transfers ownership of the contract to a new account (`newOwner`). Can only be called by the current owner."
      }
    },
    "version": 1
  },
  "userdoc": {
    "kind": "user",
    "methods": {},
    "version": 1
  }
}